{
  "contractName": "ERC20PresetMinterPauserUpgradeable",
  "abi": [
    {
      "anonymous": false,
      "inputs": [
        {
          "indexed": true,
          "internalType": "address",
          "name": "owner",
          "type": "address"
        },
        {
          "indexed": true,
          "internalType": "address",
          "name": "spender",
          "type": "address"
        },
        {
          "indexed": false,
          "internalType": "uint256",
          "name": "value",
          "type": "uint256"
        }
      ],
      "name": "Approval",
      "type": "event"
    },
    {
      "anonymous": false,
      "inputs": [
        {
          "indexed": false,
          "internalType": "address",
          "name": "account",
          "type": "address"
        }
      ],
      "name": "Paused",
      "type": "event"
    },
    {
      "anonymous": false,
      "inputs": [
        {
          "indexed": true,
          "internalType": "bytes32",
          "name": "role",
          "type": "bytes32"
        },
        {
          "indexed": true,
          "internalType": "bytes32",
          "name": "previousAdminRole",
          "type": "bytes32"
        },
        {
          "indexed": true,
          "internalType": "bytes32",
          "name": "newAdminRole",
          "type": "bytes32"
        }
      ],
      "name": "RoleAdminChanged",
      "type": "event"
    },
    {
      "anonymous": false,
      "inputs": [
        {
          "indexed": true,
          "internalType": "bytes32",
          "name": "role",
          "type": "bytes32"
        },
        {
          "indexed": true,
          "internalType": "address",
          "name": "account",
          "type": "address"
        },
        {
          "indexed": true,
          "internalType": "address",
          "name": "sender",
          "type": "address"
        }
      ],
      "name": "RoleGranted",
      "type": "event"
    },
    {
      "anonymous": false,
      "inputs": [
        {
          "indexed": true,
          "internalType": "bytes32",
          "name": "role",
          "type": "bytes32"
        },
        {
          "indexed": true,
          "internalType": "address",
          "name": "account",
          "type": "address"
        },
        {
          "indexed": true,
          "internalType": "address",
          "name": "sender",
          "type": "address"
        }
      ],
      "name": "RoleRevoked",
      "type": "event"
    },
    {
      "anonymous": false,
      "inputs": [
        {
          "indexed": true,
          "internalType": "address",
          "name": "from",
          "type": "address"
        },
        {
          "indexed": true,
          "internalType": "address",
          "name": "to",
          "type": "address"
        },
        {
          "indexed": false,
          "internalType": "uint256",
          "name": "value",
          "type": "uint256"
        }
      ],
      "name": "Transfer",
      "type": "event"
    },
    {
      "anonymous": false,
      "inputs": [
        {
          "indexed": false,
          "internalType": "address",
          "name": "account",
          "type": "address"
        }
      ],
      "name": "Unpaused",
      "type": "event"
    },
    {
      "inputs": [],
      "name": "DEFAULT_ADMIN_ROLE",
      "outputs": [
        {
          "internalType": "bytes32",
          "name": "",
          "type": "bytes32"
        }
      ],
      "stateMutability": "view",
      "type": "function"
    },
    {
      "inputs": [],
      "name": "MINTER_ROLE",
      "outputs": [
        {
          "internalType": "bytes32",
          "name": "",
          "type": "bytes32"
        }
      ],
      "stateMutability": "view",
      "type": "function"
    },
    {
      "inputs": [],
      "name": "PAUSER_ROLE",
      "outputs": [
        {
          "internalType": "bytes32",
          "name": "",
          "type": "bytes32"
        }
      ],
      "stateMutability": "view",
      "type": "function"
    },
    {
      "inputs": [
        {
          "internalType": "address",
          "name": "owner",
          "type": "address"
        },
        {
          "internalType": "address",
          "name": "spender",
          "type": "address"
        }
      ],
      "name": "allowance",
      "outputs": [
        {
          "internalType": "uint256",
          "name": "",
          "type": "uint256"
        }
      ],
      "stateMutability": "view",
      "type": "function"
    },
    {
      "inputs": [
        {
          "internalType": "address",
          "name": "spender",
          "type": "address"
        },
        {
          "internalType": "uint256",
          "name": "amount",
          "type": "uint256"
        }
      ],
      "name": "approve",
      "outputs": [
        {
          "internalType": "bool",
          "name": "",
          "type": "bool"
        }
      ],
      "stateMutability": "nonpayable",
      "type": "function"
    },
    {
      "inputs": [
        {
          "internalType": "address",
          "name": "account",
          "type": "address"
        }
      ],
      "name": "balanceOf",
      "outputs": [
        {
          "internalType": "uint256",
          "name": "",
          "type": "uint256"
        }
      ],
      "stateMutability": "view",
      "type": "function"
    },
    {
      "inputs": [
        {
          "internalType": "uint256",
          "name": "amount",
          "type": "uint256"
        }
      ],
      "name": "burn",
      "outputs": [],
      "stateMutability": "nonpayable",
      "type": "function"
    },
    {
      "inputs": [
        {
          "internalType": "address",
          "name": "account",
          "type": "address"
        },
        {
          "internalType": "uint256",
          "name": "amount",
          "type": "uint256"
        }
      ],
      "name": "burnFrom",
      "outputs": [],
      "stateMutability": "nonpayable",
      "type": "function"
    },
    {
      "inputs": [],
      "name": "decimals",
      "outputs": [
        {
          "internalType": "uint8",
          "name": "",
          "type": "uint8"
        }
      ],
      "stateMutability": "view",
      "type": "function"
    },
    {
      "inputs": [
        {
          "internalType": "address",
          "name": "spender",
          "type": "address"
        },
        {
          "internalType": "uint256",
          "name": "subtractedValue",
          "type": "uint256"
        }
      ],
      "name": "decreaseAllowance",
      "outputs": [
        {
          "internalType": "bool",
          "name": "",
          "type": "bool"
        }
      ],
      "stateMutability": "nonpayable",
      "type": "function"
    },
    {
      "inputs": [
        {
          "internalType": "bytes32",
          "name": "role",
          "type": "bytes32"
        }
      ],
      "name": "getRoleAdmin",
      "outputs": [
        {
          "internalType": "bytes32",
          "name": "",
          "type": "bytes32"
        }
      ],
      "stateMutability": "view",
      "type": "function"
    },
    {
      "inputs": [
        {
          "internalType": "bytes32",
          "name": "role",
          "type": "bytes32"
        },
        {
          "internalType": "uint256",
          "name": "index",
          "type": "uint256"
        }
      ],
      "name": "getRoleMember",
      "outputs": [
        {
          "internalType": "address",
          "name": "",
          "type": "address"
        }
      ],
      "stateMutability": "view",
      "type": "function"
    },
    {
      "inputs": [
        {
          "internalType": "bytes32",
          "name": "role",
          "type": "bytes32"
        }
      ],
      "name": "getRoleMemberCount",
      "outputs": [
        {
          "internalType": "uint256",
          "name": "",
          "type": "uint256"
        }
      ],
      "stateMutability": "view",
      "type": "function"
    },
    {
      "inputs": [
        {
          "internalType": "bytes32",
          "name": "role",
          "type": "bytes32"
        },
        {
          "internalType": "address",
          "name": "account",
          "type": "address"
        }
      ],
      "name": "grantRole",
      "outputs": [],
      "stateMutability": "nonpayable",
      "type": "function"
    },
    {
      "inputs": [
        {
          "internalType": "bytes32",
          "name": "role",
          "type": "bytes32"
        },
        {
          "internalType": "address",
          "name": "account",
          "type": "address"
        }
      ],
      "name": "hasRole",
      "outputs": [
        {
          "internalType": "bool",
          "name": "",
          "type": "bool"
        }
      ],
      "stateMutability": "view",
      "type": "function"
    },
    {
      "inputs": [
        {
          "internalType": "address",
          "name": "spender",
          "type": "address"
        },
        {
          "internalType": "uint256",
          "name": "addedValue",
          "type": "uint256"
        }
      ],
      "name": "increaseAllowance",
      "outputs": [
        {
          "internalType": "bool",
          "name": "",
          "type": "bool"
        }
      ],
      "stateMutability": "nonpayable",
      "type": "function"
    },
    {
      "inputs": [],
      "name": "name",
      "outputs": [
        {
          "internalType": "string",
          "name": "",
          "type": "string"
        }
      ],
      "stateMutability": "view",
      "type": "function"
    },
    {
      "inputs": [],
      "name": "paused",
      "outputs": [
        {
          "internalType": "bool",
          "name": "",
          "type": "bool"
        }
      ],
      "stateMutability": "view",
      "type": "function"
    },
    {
      "inputs": [
        {
          "internalType": "bytes32",
          "name": "role",
          "type": "bytes32"
        },
        {
          "internalType": "address",
          "name": "account",
          "type": "address"
        }
      ],
      "name": "renounceRole",
      "outputs": [],
      "stateMutability": "nonpayable",
      "type": "function"
    },
    {
      "inputs": [
        {
          "internalType": "bytes32",
          "name": "role",
          "type": "bytes32"
        },
        {
          "internalType": "address",
          "name": "account",
          "type": "address"
        }
      ],
      "name": "revokeRole",
      "outputs": [],
      "stateMutability": "nonpayable",
      "type": "function"
    },
    {
      "inputs": [],
      "name": "symbol",
      "outputs": [
        {
          "internalType": "string",
          "name": "",
          "type": "string"
        }
      ],
      "stateMutability": "view",
      "type": "function"
    },
    {
      "inputs": [],
      "name": "totalSupply",
      "outputs": [
        {
          "internalType": "uint256",
          "name": "",
          "type": "uint256"
        }
      ],
      "stateMutability": "view",
      "type": "function"
    },
    {
      "inputs": [
        {
          "internalType": "address",
          "name": "recipient",
          "type": "address"
        },
        {
          "internalType": "uint256",
          "name": "amount",
          "type": "uint256"
        }
      ],
      "name": "transfer",
      "outputs": [
        {
          "internalType": "bool",
          "name": "",
          "type": "bool"
        }
      ],
      "stateMutability": "nonpayable",
      "type": "function"
    },
    {
      "inputs": [
        {
          "internalType": "address",
          "name": "sender",
          "type": "address"
        },
        {
          "internalType": "address",
          "name": "recipient",
          "type": "address"
        },
        {
          "internalType": "uint256",
          "name": "amount",
          "type": "uint256"
        }
      ],
      "name": "transferFrom",
      "outputs": [
        {
          "internalType": "bool",
          "name": "",
          "type": "bool"
        }
      ],
      "stateMutability": "nonpayable",
      "type": "function"
    },
    {
      "inputs": [
        {
          "internalType": "string",
          "name": "name",
          "type": "string"
        },
        {
          "internalType": "string",
          "name": "symbol",
          "type": "string"
        }
      ],
      "name": "initialize",
      "outputs": [],
      "stateMutability": "nonpayable",
      "type": "function"
    },
    {
      "inputs": [
        {
          "internalType": "address",
          "name": "to",
          "type": "address"
        },
        {
          "internalType": "uint256",
          "name": "amount",
          "type": "uint256"
        }
      ],
      "name": "mint",
      "outputs": [],
      "stateMutability": "nonpayable",
      "type": "function"
    },
    {
      "inputs": [],
      "name": "pause",
      "outputs": [],
      "stateMutability": "nonpayable",
      "type": "function"
    },
    {
      "inputs": [],
      "name": "unpause",
      "outputs": [],
      "stateMutability": "nonpayable",
      "type": "function"
    }
  ],
  "bytecode": "0x608060405234801561001057600080fd5b5061331c806100206000396000f3fe608060405234801561001057600080fd5b50600436106101c45760003560e01c806370a08231116100f9578063a457c2d711610097578063d539139311610071578063d5391393146109ce578063d547741f146109ec578063dd62ed3e14610a3a578063e63ab1e914610ab2576101c4565b8063a457c2d7146108c4578063a9059cbb14610928578063ca15c8731461098c576101c4565b80639010d07c116100d35780639010d07c1461075d57806391d14854146107bf57806395d89b4114610823578063a217fddf146108a6576101c4565b806370a08231146106ad57806379cc6790146107055780638456cb5914610753576101c4565b806336568abe1161016657806340c10f191161014057806340c10f19146104bf57806342966c681461050d5780634cd88b761461053b5780635c975abb1461068d576101c4565b806336568abe1461040357806339509351146104515780633f4ba83a146104b5576101c4565b806323b872dd116101a257806323b872dd146102ce578063248a9ca3146103525780632f2ff15d14610394578063313ce567146103e2576101c4565b806306fdde03146101c9578063095ea7b31461024c57806318160ddd146102b0575b600080fd5b6101d1610ad0565b6040518080602001828103825283818151815260200191508051906020019080838360005b838110156102115780820151818401526020810190506101f6565b50505050905090810190601f16801561023e5780820380516001836020036101000a031916815260200191505b509250505060405180910390f35b6102986004803603604081101561026257600080fd5b81019080803573ffffffffffffffffffffffffffffffffffffffff16906020019092919080359060200190929190505050610b72565b60405180821515815260200191505060405180910390f35b6102b8610b90565b6040518082815260200191505060405180910390f35b61033a600480360360608110156102e457600080fd5b81019080803573ffffffffffffffffffffffffffffffffffffffff169060200190929190803573ffffffffffffffffffffffffffffffffffffffff16906020019092919080359060200190929190505050610b9a565b60405180821515815260200191505060405180910390f35b61037e6004803603602081101561036857600080fd5b8101908080359060200190929190505050610c73565b6040518082815260200191505060405180910390f35b6103e0600480360360408110156103aa57600080fd5b8101908080359060200190929190803573ffffffffffffffffffffffffffffffffffffffff169060200190929190505050610c93565b005b6103ea610d1d565b604051808260ff16815260200191505060405180910390f35b61044f6004803603604081101561041957600080fd5b8101908080359060200190929190803573ffffffffffffffffffffffffffffffffffffffff169060200190929190505050610d34565b005b61049d6004803603604081101561046757600080fd5b81019080803573ffffffffffffffffffffffffffffffffffffffff16906020019092919080359060200190929190505050610dcd565b60405180821515815260200191505060405180910390f35b6104bd610e80565b005b61050b600480360360408110156104d557600080fd5b81019080803573ffffffffffffffffffffffffffffffffffffffff16906020019092919080359060200190929190505050610f10565b005b6105396004803603602081101561052357600080fd5b8101908080359060200190929190505050610fa4565b005b61068b6004803603604081101561055157600080fd5b810190808035906020019064010000000081111561056e57600080fd5b82018360208201111561058057600080fd5b803590602001918460018302840111640100000000831117156105a257600080fd5b91908080601f016020809104026020016040519081016040528093929190818152602001838380828437600081840152601f19601f8201169050808301925050505050505091929192908035906020019064010000000081111561060557600080fd5b82018360208201111561061757600080fd5b8035906020019184600183028401116401000000008311171561063957600080fd5b91908080601f016020809104026020016040519081016040528093929190818152602001838380828437600081840152601f19601f820116905080830192505050505050509192919290505050610fb8565b005b6106956110c2565b60405180821515815260200191505060405180910390f35b6106ef600480360360208110156106c357600080fd5b81019080803573ffffffffffffffffffffffffffffffffffffffff1690602001909291905050506110d9565b6040518082815260200191505060405180910390f35b6107516004803603604081101561071b57600080fd5b81019080803573ffffffffffffffffffffffffffffffffffffffff16906020019092919080359060200190929190505050611122565b005b61075b611184565b005b6107936004803603604081101561077357600080fd5b810190808035906020019092919080359060200190929190505050611214565b604051808273ffffffffffffffffffffffffffffffffffffffff16815260200191505060405180910390f35b61080b600480360360408110156107d557600080fd5b8101908080359060200190929190803573ffffffffffffffffffffffffffffffffffffffff169060200190929190505050611246565b60405180821515815260200191505060405180910390f35b61082b611278565b6040518080602001828103825283818151815260200191508051906020019080838360005b8381101561086b578082015181840152602081019050610850565b50505050905090810190601f1680156108985780820380516001836020036101000a031916815260200191505b509250505060405180910390f35b6108ae61131a565b6040518082815260200191505060405180910390f35b610910600480360360408110156108da57600080fd5b81019080803573ffffffffffffffffffffffffffffffffffffffff16906020019092919080359060200190929190505050611321565b60405180821515815260200191505060405180910390f35b6109746004803603604081101561093e57600080fd5b81019080803573ffffffffffffffffffffffffffffffffffffffff169060200190929190803590602001909291905050506113ee565b60405180821515815260200191505060405180910390f35b6109b8600480360360208110156109a257600080fd5b810190808035906020019092919050505061140c565b6040518082815260200191505060405180910390f35b6109d6611433565b6040518082815260200191505060405180910390f35b610a3860048036036040811015610a0257600080fd5b8101908080359060200190929190803573ffffffffffffffffffffffffffffffffffffffff169060200190929190505050611457565b005b610a9c60048036036040811015610a5057600080fd5b81019080803573ffffffffffffffffffffffffffffffffffffffff169060200190929190803573ffffffffffffffffffffffffffffffffffffffff1690602001909291905050506114e1565b6040518082815260200191505060405180910390f35b610aba611568565b6040518082815260200191505060405180910390f35b606060688054600181600116156101000203166002900480601f016020809104026020016040519081016040528092919081815260200182805460018160011615610100020316600290048015610b685780601f10610b3d57610100808354040283529160200191610b68565b820191906000526020600020905b815481529060010190602001808311610b4b57829003601f168201915b5050505050905090565b6000610b86610b7f61158c565b8484611594565b6001905092915050565b6000606754905090565b6000610ba784848461178b565b610c6884610bb361158c565b610c638560405180606001604052806028815260200161314660289139606660008b73ffffffffffffffffffffffffffffffffffffffff1673ffffffffffffffffffffffffffffffffffffffff1681526020019081526020016000206000610c1961158c565b73ffffffffffffffffffffffffffffffffffffffff1673ffffffffffffffffffffffffffffffffffffffff16815260200190815260200160002054611a509092919063ffffffff16565b611594565b600190509392505050565b600060336000838152602001908152602001600020600201549050919050565b610cba6033600084815260200190815260200160002060020154610cb561158c565b611246565b610d0f576040517f08c379a000000000000000000000000000000000000000000000000000000000815260040180806020018281038252602f815260200180613016602f913960400191505060405180910390fd5b610d198282611b0a565b5050565b6000606a60009054906101000a900460ff16905090565b610d3c61158c565b73ffffffffffffffffffffffffffffffffffffffff168173ffffffffffffffffffffffffffffffffffffffff1614610dbf576040517f08c379a000000000000000000000000000000000000000000000000000000000815260040180806020018281038252602f81526020018061328e602f913960400191505060405180910390fd5b610dc98282611b9e565b5050565b6000610e76610dda61158c565b84610e718560666000610deb61158c565b73ffffffffffffffffffffffffffffffffffffffff1673ffffffffffffffffffffffffffffffffffffffff16815260200190815260200160002060008973ffffffffffffffffffffffffffffffffffffffff1673ffffffffffffffffffffffffffffffffffffffff16815260200190815260200160002054611c3290919063ffffffff16565b611594565b6001905092915050565b610eb17f65d7a28e3265b37a6474929f336521b332c1681b933f6cb9f3376673440d862a610eac61158c565b611246565b610f06576040517f08c379a00000000000000000000000000000000000000000000000000000000081526004018080602001828103825260398152602001806130676039913960400191505060405180910390fd5b610f0e611cba565b565b610f417f9f2df0fed2c77648de5860a4cc508cd0818c85b8b8a1ab4ceeef8d981c8956a6610f3c61158c565b611246565b610f96576040517f08c379a000000000000000000000000000000000000000000000000000000000815260040180806020018281038252603681526020018061316e6036913960400191505060405180910390fd5b610fa08282611da5565b5050565b610fb5610faf61158c565b82611f6e565b50565b600060019054906101000a900460ff1680610fd75750610fd6612134565b5b80610fed575060008054906101000a900460ff16155b611042576040517f08c379a000000000000000000000000000000000000000000000000000000000815260040180806020018281038252602e815260200180613118602e913960400191505060405180910390fd5b60008060019054906101000a900460ff161590508015611092576001600060016101000a81548160ff02191690831515021790555060016000806101000a81548160ff0219169083151502179055505b61109c8383612145565b80156110bd5760008060016101000a81548160ff0219169083151502179055505b505050565b600060c960009054906101000a900460ff16905090565b6000606560008373ffffffffffffffffffffffffffffffffffffffff1673ffffffffffffffffffffffffffffffffffffffff168152602001908152602001600020549050919050565b6000611161826040518060600160405280602481526020016131a4602491396111528661114d61158c565b6114e1565b611a509092919063ffffffff16565b90506111758361116f61158c565b83611594565b61117f8383611f6e565b505050565b6111b57f65d7a28e3265b37a6474929f336521b332c1681b933f6cb9f3376673440d862a6111b061158c565b611246565b61120a576040517f08c379a00000000000000000000000000000000000000000000000000000000081526004018080602001828103825260378152602001806132326037913960400191505060405180910390fd5b611212612281565b565b600061123e826033600086815260200190815260200160002060000161236d90919063ffffffff16565b905092915050565b6000611270826033600086815260200190815260200160002060000161238790919063ffffffff16565b905092915050565b606060698054600181600116156101000203166002900480601f0160208091040260200160405190810160405280929190818152602001828054600181600116156101000203166002900480156113105780601f106112e557610100808354040283529160200191611310565b820191906000526020600020905b8154815290600101906020018083116112f357829003601f168201915b5050505050905090565b6000801b81565b60006113e461132e61158c565b846113df85604051806060016040528060258152602001613269602591396066600061135861158c565b73ffffffffffffffffffffffffffffffffffffffff1673ffffffffffffffffffffffffffffffffffffffff16815260200190815260200160002060008a73ffffffffffffffffffffffffffffffffffffffff1673ffffffffffffffffffffffffffffffffffffffff16815260200190815260200160002054611a509092919063ffffffff16565b611594565b6001905092915050565b60006114026113fb61158c565b848461178b565b6001905092915050565b600061142c603360008481526020019081526020016000206000016123b7565b9050919050565b7f9f2df0fed2c77648de5860a4cc508cd0818c85b8b8a1ab4ceeef8d981c8956a681565b61147e603360008481526020019081526020016000206002015461147961158c565b611246565b6114d3576040517f08c379a00000000000000000000000000000000000000000000000000000000081526004018080602001828103825260308152602001806130e86030913960400191505060405180910390fd5b6114dd8282611b9e565b5050565b6000606660008473ffffffffffffffffffffffffffffffffffffffff1673ffffffffffffffffffffffffffffffffffffffff16815260200190815260200160002060008373ffffffffffffffffffffffffffffffffffffffff1673ffffffffffffffffffffffffffffffffffffffff16815260200190815260200160002054905092915050565b7f65d7a28e3265b37a6474929f336521b332c1681b933f6cb9f3376673440d862a81565b600033905090565b600073ffffffffffffffffffffffffffffffffffffffff168373ffffffffffffffffffffffffffffffffffffffff16141561161a576040517f08c379a000000000000000000000000000000000000000000000000000000000815260040180806020018281038252602481526020018061320e6024913960400191505060405180910390fd5b600073ffffffffffffffffffffffffffffffffffffffff168273ffffffffffffffffffffffffffffffffffffffff1614156116a0576040517f08c379a00000000000000000000000000000000000000000000000000000000081526004018080602001828103825260228152602001806130a06022913960400191505060405180910390fd5b80606660008573ffffffffffffffffffffffffffffffffffffffff1673ffffffffffffffffffffffffffffffffffffffff16815260200190815260200160002060008473ffffffffffffffffffffffffffffffffffffffff1673ffffffffffffffffffffffffffffffffffffffff168152602001908152602001600020819055508173ffffffffffffffffffffffffffffffffffffffff168373ffffffffffffffffffffffffffffffffffffffff167f8c5be1e5ebec7d5bd14f71427d1e84f3dd0314c0f7b2291e5b200ac8c7c3b925836040518082815260200191505060405180910390a3505050565b600073ffffffffffffffffffffffffffffffffffffffff168373ffffffffffffffffffffffffffffffffffffffff161415611811576040517f08c379a00000000000000000000000000000000000000000000000000000000081526004018080602001828103825260258152602001806131e96025913960400191505060405180910390fd5b600073ffffffffffffffffffffffffffffffffffffffff168273ffffffffffffffffffffffffffffffffffffffff161415611897576040517f08c379a0000000000000000000000000000000000000000000000000000000008152600401808060200182810382526023815260200180612ff36023913960400191505060405180910390fd5b6118a28383836123cc565b61190e816040518060600160405280602681526020016130c260269139606560008773ffffffffffffffffffffffffffffffffffffffff1673ffffffffffffffffffffffffffffffffffffffff16815260200190815260200160002054611a509092919063ffffffff16565b606560008573ffffffffffffffffffffffffffffffffffffffff1673ffffffffffffffffffffffffffffffffffffffff168152602001908152602001600020819055506119a381606560008573ffffffffffffffffffffffffffffffffffffffff1673ffffffffffffffffffffffffffffffffffffffff16815260200190815260200160002054611c3290919063ffffffff16565b606560008473ffffffffffffffffffffffffffffffffffffffff1673ffffffffffffffffffffffffffffffffffffffff168152602001908152602001600020819055508173ffffffffffffffffffffffffffffffffffffffff168373ffffffffffffffffffffffffffffffffffffffff167fddf252ad1be2c89b69c2b068fc378daa952ba7f163c4a11628f55a4df523b3ef836040518082815260200191505060405180910390a3505050565b6000838311158290611afd576040517f08c379a00000000000000000000000000000000000000000000000000000000081526004018080602001828103825283818151815260200191508051906020019080838360005b83811015611ac2578082015181840152602081019050611aa7565b50505050905090810190601f168015611aef5780820380516001836020036101000a031916815260200191505b509250505060405180910390fd5b5082840390509392505050565b611b3281603360008581526020019081526020016000206000016123dc90919063ffffffff16565b15611b9a57611b3f61158c565b73ffffffffffffffffffffffffffffffffffffffff168173ffffffffffffffffffffffffffffffffffffffff16837f2f8788117e7eff1d82e926ec794901d17c78024a50270940304540a733656f0d60405160405180910390a45b5050565b611bc6816033600085815260200190815260200160002060000161240c90919063ffffffff16565b15611c2e57611bd361158c565b73ffffffffffffffffffffffffffffffffffffffff168173ffffffffffffffffffffffffffffffffffffffff16837ff6391f5c32d9c69d2a47ea670b442974b53935d1edc7fd64eb21e047a839171b60405160405180910390a45b5050565b600080828401905083811015611cb0576040517f08c379a000000000000000000000000000000000000000000000000000000000815260040180806020018281038252601b8152602001807f536166654d6174683a206164646974696f6e206f766572666c6f77000000000081525060200191505060405180910390fd5b8091505092915050565b611cc26110c2565b611d34576040517f08c379a00000000000000000000000000000000000000000000000000000000081526004018080602001828103825260148152602001807f5061757361626c653a206e6f742070617573656400000000000000000000000081525060200191505060405180910390fd5b600060c960006101000a81548160ff0219169083151502179055507f5db9ee0a495bf2e6ff9c91a7834c1ba4fdd244a5e8aa4e537bd38aeae4b073aa611d7861158c565b604051808273ffffffffffffffffffffffffffffffffffffffff16815260200191505060405180910390a1565b600073ffffffffffffffffffffffffffffffffffffffff168273ffffffffffffffffffffffffffffffffffffffff161415611e48576040517f08c379a000000000000000000000000000000000000000000000000000000000815260040180806020018281038252601f8152602001807f45524332303a206d696e7420746f20746865207a65726f20616464726573730081525060200191505060405180910390fd5b611e54600083836123cc565b611e6981606754611c3290919063ffffffff16565b606781905550611ec181606560008573ffffffffffffffffffffffffffffffffffffffff1673ffffffffffffffffffffffffffffffffffffffff16815260200190815260200160002054611c3290919063ffffffff16565b606560008473ffffffffffffffffffffffffffffffffffffffff1673ffffffffffffffffffffffffffffffffffffffff168152602001908152602001600020819055508173ffffffffffffffffffffffffffffffffffffffff16600073ffffffffffffffffffffffffffffffffffffffff167fddf252ad1be2c89b69c2b068fc378daa952ba7f163c4a11628f55a4df523b3ef836040518082815260200191505060405180910390a35050565b600073ffffffffffffffffffffffffffffffffffffffff168273ffffffffffffffffffffffffffffffffffffffff161415611ff4576040517f08c379a00000000000000000000000000000000000000000000000000000000081526004018080602001828103825260218152602001806131c86021913960400191505060405180910390fd5b612000826000836123cc565b61206c8160405180606001604052806022815260200161304560229139606560008673ffffffffffffffffffffffffffffffffffffffff1673ffffffffffffffffffffffffffffffffffffffff16815260200190815260200160002054611a509092919063ffffffff16565b606560008473ffffffffffffffffffffffffffffffffffffffff1673ffffffffffffffffffffffffffffffffffffffff168152602001908152602001600020819055506120c48160675461243c90919063ffffffff16565b606781905550600073ffffffffffffffffffffffffffffffffffffffff168273ffffffffffffffffffffffffffffffffffffffff167fddf252ad1be2c89b69c2b068fc378daa952ba7f163c4a11628f55a4df523b3ef836040518082815260200191505060405180910390a35050565b600061213f306124bf565b15905090565b600060019054906101000a900460ff16806121645750612163612134565b5b8061217a575060008054906101000a900460ff16155b6121cf576040517f08c379a000000000000000000000000000000000000000000000000000000000815260040180806020018281038252602e815260200180613118602e913960400191505060405180910390fd5b60008060019054906101000a900460ff16159050801561221f576001600060016101000a81548160ff02191690831515021790555060016000806101000a81548160ff0219169083151502179055505b6122276124d2565b61222f6125d0565b61223983836126ce565b612241612818565b612249612916565b612251612a2f565b61225b8383612b2d565b801561227c5760008060016101000a81548160ff0219169083151502179055505b505050565b6122896110c2565b156122fc576040517f08c379a00000000000000000000000000000000000000000000000000000000081526004018080602001828103825260108152602001807f5061757361626c653a207061757365640000000000000000000000000000000081525060200191505060405180910390fd5b600160c960006101000a81548160ff0219169083151502179055507f62e78cea01bee320cd4e420270b5ea74000d11b0c9f74754ebdbfc544b05a25861234061158c565b604051808273ffffffffffffffffffffffffffffffffffffffff16815260200191505060405180910390a1565b600061237c8360000183612ca3565b60001c905092915050565b60006123af836000018373ffffffffffffffffffffffffffffffffffffffff1660001b612d26565b905092915050565b60006123c582600001612d49565b9050919050565b6123d7838383612d5a565b505050565b6000612404836000018373ffffffffffffffffffffffffffffffffffffffff1660001b612dc8565b905092915050565b6000612434836000018373ffffffffffffffffffffffffffffffffffffffff1660001b612e38565b905092915050565b6000828211156124b4576040517f08c379a000000000000000000000000000000000000000000000000000000000815260040180806020018281038252601e8152602001807f536166654d6174683a207375627472616374696f6e206f766572666c6f77000081525060200191505060405180910390fd5b818303905092915050565b600080823b905060008111915050919050565b600060019054906101000a900460ff16806124f157506124f0612134565b5b80612507575060008054906101000a900460ff16155b61255c576040517f08c379a000000000000000000000000000000000000000000000000000000000815260040180806020018281038252602e815260200180613118602e913960400191505060405180910390fd5b60008060019054906101000a900460ff1615905080156125ac576001600060016101000a81548160ff02191690831515021790555060016000806101000a81548160ff0219169083151502179055505b80156125cd5760008060016101000a81548160ff0219169083151502179055505b50565b600060019054906101000a900460ff16806125ef57506125ee612134565b5b80612605575060008054906101000a900460ff16155b61265a576040517f08c379a000000000000000000000000000000000000000000000000000000000815260040180806020018281038252602e815260200180613118602e913960400191505060405180910390fd5b60008060019054906101000a900460ff1615905080156126aa576001600060016101000a81548160ff02191690831515021790555060016000806101000a81548160ff0219169083151502179055505b80156126cb5760008060016101000a81548160ff0219169083151502179055505b50565b600060019054906101000a900460ff16806126ed57506126ec612134565b5b80612703575060008054906101000a900460ff16155b612758576040517f08c379a000000000000000000000000000000000000000000000000000000000815260040180806020018281038252602e815260200180613118602e913960400191505060405180910390fd5b60008060019054906101000a900460ff1615905080156127a8576001600060016101000a81548160ff02191690831515021790555060016000806101000a81548160ff0219169083151502179055505b82606890805190602001906127be929190612f33565b5081606990805190602001906127d5929190612f33565b506012606a60006101000a81548160ff021916908360ff16021790555080156128135760008060016101000a81548160ff0219169083151502179055505b505050565b600060019054906101000a900460ff16806128375750612836612134565b5b8061284d575060008054906101000a900460ff16155b6128a2576040517f08c379a000000000000000000000000000000000000000000000000000000000815260040180806020018281038252602e815260200180613118602e913960400191505060405180910390fd5b60008060019054906101000a900460ff1615905080156128f2576001600060016101000a81548160ff02191690831515021790555060016000806101000a81548160ff0219169083151502179055505b80156129135760008060016101000a81548160ff0219169083151502179055505b50565b600060019054906101000a900460ff16806129355750612934612134565b5b8061294b575060008054906101000a900460ff16155b6129a0576040517f08c379a000000000000000000000000000000000000000000000000000000000815260040180806020018281038252602e815260200180613118602e913960400191505060405180910390fd5b60008060019054906101000a900460ff1615905080156129f0576001600060016101000a81548160ff02191690831515021790555060016000806101000a81548160ff0219169083151502179055505b600060c960006101000a81548160ff0219169083151502179055508015612a2c5760008060016101000a81548160ff0219169083151502179055505b50565b600060019054906101000a900460ff1680612a4e5750612a4d612134565b5b80612a64575060008054906101000a900460ff16155b612ab9576040517f08c379a000000000000000000000000000000000000000000000000000000000815260040180806020018281038252602e815260200180613118602e913960400191505060405180910390fd5b60008060019054906101000a900460ff161590508015612b09576001600060016101000a81548160ff02191690831515021790555060016000806101000a81548160ff0219169083151502179055505b8015612b2a5760008060016101000a81548160ff0219169083151502179055505b50565b600060019054906101000a900460ff1680612b4c5750612b4b612134565b5b80612b62575060008054906101000a900460ff16155b612bb7576040517f08c379a000000000000000000000000000000000000000000000000000000000815260040180806020018281038252602e815260200180613118602e913960400191505060405180910390fd5b60008060019054906101000a900460ff161590508015612c07576001600060016101000a81548160ff02191690831515021790555060016000806101000a81548160ff0219169083151502179055505b612c1b6000801b612c1661158c565b612f20565b612c4c7f9f2df0fed2c77648de5860a4cc508cd0818c85b8b8a1ab4ceeef8d981c8956a6612c4761158c565b612f20565b612c7d7f65d7a28e3265b37a6474929f336521b332c1681b933f6cb9f3376673440d862a612c7861158c565b612f20565b8015612c9e5760008060016101000a81548160ff0219169083151502179055505b505050565b600081836000018054905011612d04576040517f08c379a0000000000000000000000000000000000000000000000000000000008152600401808060200182810382526022815260200180612fd16022913960400191505060405180910390fd5b826000018281548110612d1357fe5b9060005260206000200154905092915050565b600080836001016000848152602001908152602001600020541415905092915050565b600081600001805490509050919050565b612d65838383612f2e565b612d6d6110c2565b15612dc3576040517f08c379a000000000000000000000000000000000000000000000000000000000815260040180806020018281038252602a8152602001806132bd602a913960400191505060405180910390fd5b505050565b6000612dd48383612d26565b612e2d578260000182908060018154018082558091505060019003906000526020600020016000909190919091505582600001805490508360010160008481526020019081526020016000208190555060019050612e32565b600090505b92915050565b60008083600101600084815260200190815260200160002054905060008114612f145760006001820390506000600186600001805490500390506000866000018281548110612e8357fe5b9060005260206000200154905080876000018481548110612ea057fe5b9060005260206000200181905550600183018760010160008381526020019081526020016000208190555086600001805480612ed857fe5b60019003818190600052602060002001600090559055866001016000878152602001908152602001600020600090556001945050505050612f1a565b60009150505b92915050565b612f2a8282611b0a565b5050565b505050565b828054600181600116156101000203166002900490600052602060002090601f016020900481019282601f10612f7457805160ff1916838001178555612fa2565b82800160010185558215612fa2579182015b82811115612fa1578251825591602001919060010190612f86565b5b509050612faf9190612fb3565b5090565b5b80821115612fcc576000816000905550600101612fb4565b509056fe456e756d657261626c655365743a20696e646578206f7574206f6620626f756e647345524332303a207472616e7366657220746f20746865207a65726f2061646472657373416363657373436f6e74726f6c3a2073656e646572206d75737420626520616e2061646d696e20746f206772616e7445524332303a206275726e20616d6f756e7420657863656564732062616c616e636545524332305072657365744d696e7465725061757365723a206d75737420686176652070617573657220726f6c6520746f20756e706175736545524332303a20617070726f766520746f20746865207a65726f206164647265737345524332303a207472616e7366657220616d6f756e7420657863656564732062616c616e6365416363657373436f6e74726f6c3a2073656e646572206d75737420626520616e2061646d696e20746f207265766f6b65496e697469616c697a61626c653a20636f6e747261637420697320616c726561647920696e697469616c697a656445524332303a207472616e7366657220616d6f756e74206578636565647320616c6c6f77616e636545524332305072657365744d696e7465725061757365723a206d7573742068617665206d696e74657220726f6c6520746f206d696e7445524332303a206275726e20616d6f756e74206578636565647320616c6c6f77616e636545524332303a206275726e2066726f6d20746865207a65726f206164647265737345524332303a207472616e736665722066726f6d20746865207a65726f206164647265737345524332303a20617070726f76652066726f6d20746865207a65726f206164647265737345524332305072657365744d696e7465725061757365723a206d75737420686176652070617573657220726f6c6520746f20706175736545524332303a2064656372656173656420616c6c6f77616e63652062656c6f77207a65726f416363657373436f6e74726f6c3a2063616e206f6e6c792072656e6f756e636520726f6c657320666f722073656c6645524332305061757361626c653a20746f6b656e207472616e73666572207768696c6520706175736564a26469706673582212202c67d5d84dd96930692a160e8a6f6e95acba6f19808755939ae104c571b59bc964736f6c634300060c0033",
  "immutableReferences": {},
  "source": "// SPDX-License-Identifier: MIT\n\npragma solidity >=0.6.0 <0.8.0;\n\nimport \"../access/AccessControlUpgradeable.sol\";\nimport \"../utils/ContextUpgradeable.sol\";\nimport \"../token/ERC20/ERC20Upgradeable.sol\";\nimport \"../token/ERC20/ERC20BurnableUpgradeable.sol\";\nimport \"../token/ERC20/ERC20PausableUpgradeable.sol\";\nimport \"../proxy/Initializable.sol\";\n\n/**\n * @dev {ERC20} token, including:\n *\n *  - ability for holders to burn (destroy) their tokens\n *  - a minter role that allows for token minting (creation)\n *  - a pauser role that allows to stop all token transfers\n *\n * This contract uses {AccessControl} to lock permissioned functions using the\n * different roles - head to its documentation for details.\n *\n * The account that deploys the contract will be granted the minter and pauser\n * roles, as well as the default admin role, which will let it grant both minter\n * and pauser roles to other accounts.\n */\ncontract ERC20PresetMinterPauserUpgradeable is Initializable, ContextUpgradeable, AccessControlUpgradeable, ERC20BurnableUpgradeable, ERC20PausableUpgradeable {\n    function initialize(string memory name, string memory symbol) public virtual initializer {\n        __ERC20PresetMinterPauser_init(name, symbol);\n    }\n    bytes32 public constant MINTER_ROLE = keccak256(\"MINTER_ROLE\");\n    bytes32 public constant PAUSER_ROLE = keccak256(\"PAUSER_ROLE\");\n\n    /**\n     * @dev Grants `DEFAULT_ADMIN_ROLE`, `MINTER_ROLE` and `PAUSER_ROLE` to the\n     * account that deploys the contract.\n     *\n     * See {ERC20-constructor}.\n     */\n    function __ERC20PresetMinterPauser_init(string memory name, string memory symbol) internal initializer {\n        __Context_init_unchained();\n        __AccessControl_init_unchained();\n        __ERC20_init_unchained(name, symbol);\n        __ERC20Burnable_init_unchained();\n        __Pausable_init_unchained();\n        __ERC20Pausable_init_unchained();\n        __ERC20PresetMinterPauser_init_unchained(name, symbol);\n    }\n\n    function __ERC20PresetMinterPauser_init_unchained(string memory name, string memory symbol) internal initializer {\n        _setupRole(DEFAULT_ADMIN_ROLE, _msgSender());\n\n        _setupRole(MINTER_ROLE, _msgSender());\n        _setupRole(PAUSER_ROLE, _msgSender());\n    }\n\n    /**\n     * @dev Creates `amount` new tokens for `to`.\n     *\n     * See {ERC20-_mint}.\n     *\n     * Requirements:\n     *\n     * - the caller must have the `MINTER_ROLE`.\n     */\n    function mint(address to, uint256 amount) public virtual {\n        require(hasRole(MINTER_ROLE, _msgSender()), \"ERC20PresetMinterPauser: must have minter role to mint\");\n        _mint(to, amount);\n    }\n\n    /**\n     * @dev Pauses all token transfers.\n     *\n     * See {ERC20Pausable} and {Pausable-_pause}.\n     *\n     * Requirements:\n     *\n     * - the caller must have the `PAUSER_ROLE`.\n     */\n    function pause() public virtual {\n        require(hasRole(PAUSER_ROLE, _msgSender()), \"ERC20PresetMinterPauser: must have pauser role to pause\");\n        _pause();\n    }\n\n    /**\n     * @dev Unpauses all token transfers.\n     *\n     * See {ERC20Pausable} and {Pausable-_unpause}.\n     *\n     * Requirements:\n     *\n     * - the caller must have the `PAUSER_ROLE`.\n     */\n    function unpause() public virtual {\n        require(hasRole(PAUSER_ROLE, _msgSender()), \"ERC20PresetMinterPauser: must have pauser role to unpause\");\n        _unpause();\n    }\n\n    function _beforeTokenTransfer(address from, address to, uint256 amount) internal virtual override(ERC20Upgradeable, ERC20PausableUpgradeable) {\n        super._beforeTokenTransfer(from, to, amount);\n    }\n    uint256[50] private __gap;\n}\n",
  "sourcePath": "@openzeppelin/contracts-upgradeable/presets/ERC20PresetMinterPauserUpgradeable.sol",
  "compiler": {
    "name": "solc",
    "version": "0.6.12+commit.27d51765.Emscripten.clang"
  },
  "schemaVersion": "3.3.3",
  "updatedAt": "2021-03-30T18:56:52.314Z",
  "devdoc": {
    "details": "{ERC20} token, including:  - ability for holders to burn (destroy) their tokens  - a minter role that allows for token minting (creation)  - a pauser role that allows to stop all token transfers This contract uses {AccessControl} to lock permissioned functions using the different roles - head to its documentation for details. The account that deploys the contract will be granted the minter and pauser roles, as well as the default admin role, which will let it grant both minter and pauser roles to other accounts.",
    "kind": "dev",
    "methods": {
      "allowance(address,address)": {
        "details": "See {IERC20-allowance}."
      },
      "approve(address,uint256)": {
        "details": "See {IERC20-approve}. Requirements: - `spender` cannot be the zero address."
      },
      "balanceOf(address)": {
        "details": "See {IERC20-balanceOf}."
      },
      "burn(uint256)": {
        "details": "Destroys `amount` tokens from the caller. See {ERC20-_burn}."
      },
      "burnFrom(address,uint256)": {
        "details": "Destroys `amount` tokens from `account`, deducting from the caller's allowance. See {ERC20-_burn} and {ERC20-allowance}. Requirements: - the caller must have allowance for ``accounts``'s tokens of at least `amount`."
      },
      "decimals()": {
        "details": "Returns the number of decimals used to get its user representation. For example, if `decimals` equals `2`, a balance of `505` tokens should be displayed to a user as `5,05` (`505 / 10 ** 2`). Tokens usually opt for a value of 18, imitating the relationship between Ether and Wei. This is the value {ERC20} uses, unless {_setupDecimals} is called. NOTE: This information is only used for _display_ purposes: it in no way affects any of the arithmetic of the contract, including {IERC20-balanceOf} and {IERC20-transfer}."
      },
      "decreaseAllowance(address,uint256)": {
        "details": "Atomically decreases the allowance granted to `spender` by the caller. This is an alternative to {approve} that can be used as a mitigation for problems described in {IERC20-approve}. Emits an {Approval} event indicating the updated allowance. Requirements: - `spender` cannot be the zero address. - `spender` must have allowance for the caller of at least `subtractedValue`."
      },
      "getRoleAdmin(bytes32)": {
        "details": "Returns the admin role that controls `role`. See {grantRole} and {revokeRole}. To change a role's admin, use {_setRoleAdmin}."
      },
      "getRoleMember(bytes32,uint256)": {
        "details": "Returns one of the accounts that have `role`. `index` must be a value between 0 and {getRoleMemberCount}, non-inclusive. Role bearers are not sorted in any particular way, and their ordering may change at any point. WARNING: When using {getRoleMember} and {getRoleMemberCount}, make sure you perform all queries on the same block. See the following https://forum.openzeppelin.com/t/iterating-over-elements-on-enumerableset-in-openzeppelin-contracts/2296[forum post] for more information."
      },
      "getRoleMemberCount(bytes32)": {
        "details": "Returns the number of accounts that have `role`. Can be used together with {getRoleMember} to enumerate all bearers of a role."
      },
      "grantRole(bytes32,address)": {
        "details": "Grants `role` to `account`. If `account` had not been already granted `role`, emits a {RoleGranted} event. Requirements: - the caller must have ``role``'s admin role."
      },
      "hasRole(bytes32,address)": {
        "details": "Returns `true` if `account` has been granted `role`."
      },
      "increaseAllowance(address,uint256)": {
        "details": "Atomically increases the allowance granted to `spender` by the caller. This is an alternative to {approve} that can be used as a mitigation for problems described in {IERC20-approve}. Emits an {Approval} event indicating the updated allowance. Requirements: - `spender` cannot be the zero address."
      },
      "mint(address,uint256)": {
        "details": "Creates `amount` new tokens for `to`. See {ERC20-_mint}. Requirements: - the caller must have the `MINTER_ROLE`."
      },
      "name()": {
        "details": "Returns the name of the token."
      },
      "pause()": {
        "details": "Pauses all token transfers. See {ERC20Pausable} and {Pausable-_pause}. Requirements: - the caller must have the `PAUSER_ROLE`."
      },
      "paused()": {
        "details": "Returns true if the contract is paused, and false otherwise."
      },
      "renounceRole(bytes32,address)": {
        "details": "Revokes `role` from the calling account. Roles are often managed via {grantRole} and {revokeRole}: this function's purpose is to provide a mechanism for accounts to lose their privileges if they are compromised (such as when a trusted device is misplaced). If the calling account had been granted `role`, emits a {RoleRevoked} event. Requirements: - the caller must be `account`."
      },
      "revokeRole(bytes32,address)": {
        "details": "Revokes `role` from `account`. If `account` had been granted `role`, emits a {RoleRevoked} event. Requirements: - the caller must have ``role``'s admin role."
      },
      "symbol()": {
        "details": "Returns the symbol of the token, usually a shorter version of the name."
      },
      "totalSupply()": {
        "details": "See {IERC20-totalSupply}."
      },
      "transfer(address,uint256)": {
        "details": "See {IERC20-transfer}. Requirements: - `recipient` cannot be the zero address. - the caller must have a balance of at least `amount`."
      },
      "transferFrom(address,address,uint256)": {
        "details": "See {IERC20-transferFrom}. Emits an {Approval} event indicating the updated allowance. This is not required by the EIP. See the note at the beginning of {ERC20}. Requirements: - `sender` and `recipient` cannot be the zero address. - `sender` must have a balance of at least `amount`. - the caller must have allowance for ``sender``'s tokens of at least `amount`."
      },
      "unpause()": {
        "details": "Unpauses all token transfers. See {ERC20Pausable} and {Pausable-_unpause}. Requirements: - the caller must have the `PAUSER_ROLE`."
      }
    },
    "version": 1
  },
  "userdoc": {
    "kind": "user",
    "methods": {},
    "version": 1
  }
}