{
  "contractName": "IndexedMappingWrapper",
  "abi": [
    {
      "constant": false,
      "inputs": [
        {
          "name": "val",
          "type": "address"
        }
      ],
      "name": "add",
      "outputs": [
        {
          "name": "",
          "type": "bool"
        }
      ],
      "payable": false,
      "stateMutability": "nonpayable",
      "type": "function"
    },
    {
      "constant": false,
      "inputs": [
        {
          "name": "val",
          "type": "address"
        }
      ],
      "name": "remove",
      "outputs": [
        {
          "name": "",
          "type": "bool"
        }
      ],
      "payable": false,
      "stateMutability": "nonpayable",
      "type": "function"
    },
    {
      "constant": true,
      "inputs": [
        {
          "name": "val",
          "type": "address"
        }
      ],
      "name": "exists",
      "outputs": [
        {
          "name": "",
          "type": "bool"
        }
      ],
      "payable": false,
      "stateMutability": "view",
      "type": "function"
    },
    {
      "constant": true,
      "inputs": [
        {
          "name": "index",
          "type": "uint256"
        }
      ],
      "name": "getValue",
      "outputs": [
        {
          "name": "",
          "type": "address"
        }
      ],
      "payable": false,
      "stateMutability": "view",
      "type": "function"
    },
    {
      "constant": true,
      "inputs": [],
      "name": "getValueList",
      "outputs": [
        {
          "name": "",
          "type": "address[]"
        }
      ],
      "payable": false,
      "stateMutability": "view",
      "type": "function"
    }
  ],
  "bytecode": "0x608060405234801561001057600080fd5b506107c2806100206000396000f30060806040526004361061006d576000357c0100000000000000000000000000000000000000000000000000000000900463ffffffff1680630a3b0a4f146100725780630ff4c916146100cd57806329092d0e1461013a578063c66789c214610195578063f6a3d24e14610201575b600080fd5b34801561007e57600080fd5b506100b3600480360381019080803573ffffffffffffffffffffffffffffffffffffffff16906020019092919050505061025c565b604051808215151515815260200191505060405180910390f35b3480156100d957600080fd5b506100f860048036038101908080359060200190929190505050610279565b604051808273ffffffffffffffffffffffffffffffffffffffff1673ffffffffffffffffffffffffffffffffffffffff16815260200191505060405180910390f35b34801561014657600080fd5b5061017b600480360381019080803573ffffffffffffffffffffffffffffffffffffffff169060200190929190505050610296565b604051808215151515815260200191505060405180910390f35b3480156101a157600080fd5b506101aa6102b3565b6040518080602001828103825283818151815260200191508051906020019060200280838360005b838110156101ed5780820151818401526020810190506101d2565b505050509050019250505060405180910390f35b34801561020d57600080fd5b50610242600480360381019080803573ffffffffffffffffffffffffffffffffffffffff1690602001909291905050506102c4565b604051808215151515815260200191505060405180910390f35b60006102728260006102e190919063ffffffff16565b9050919050565b600061028f82600061040f90919063ffffffff16565b9050919050565b60006102ac82600061045590919063ffffffff16565b9050919050565b60606102bf600061065a565b905090565b60006102da8260006106ec90919063ffffffff16565b9050919050565b60006102ed83836106ec565b156102fb5760009050610409565b60018360000160008473ffffffffffffffffffffffffffffffffffffffff1673ffffffffffffffffffffffffffffffffffffffff16815260200190815260200160002060006101000a81548160ff0219169083151502179055506001836002018390806001815401808255809150509060018203906000526020600020016000909192909190916101000a81548173ffffffffffffffffffffffffffffffffffffffff021916908373ffffffffffffffffffffffffffffffffffffffff160217905550038360010160008473ffffffffffffffffffffffffffffffffffffffff1673ffffffffffffffffffffffffffffffffffffffff16815260200190815260200160002081905550600190505b92915050565b6000826002018281548110151561042257fe5b9060005260206000200160009054906101000a900473ffffffffffffffffffffffffffffffffffffffff16905092915050565b600080600061046485856106ec565b15156104735760009250610652565b8460010160008573ffffffffffffffffffffffffffffffffffffffff1673ffffffffffffffffffffffffffffffffffffffff1681526020019081526020016000205491508460020160018660020180549050038154811015156104d257fe5b9060005260206000200160009054906101000a900473ffffffffffffffffffffffffffffffffffffffff16905080856002018381548110151561051157fe5b9060005260206000200160006101000a81548173ffffffffffffffffffffffffffffffffffffffff021916908373ffffffffffffffffffffffffffffffffffffffff160217905550818560010160008373ffffffffffffffffffffffffffffffffffffffff1673ffffffffffffffffffffffffffffffffffffffff16815260200190815260200160002081905550846002018054809190600190036105b69190610745565b508460000160008573ffffffffffffffffffffffffffffffffffffffff1673ffffffffffffffffffffffffffffffffffffffff16815260200190815260200160002060006101000a81549060ff02191690558460010160008573ffffffffffffffffffffffffffffffffffffffff1673ffffffffffffffffffffffffffffffffffffffff16815260200190815260200160002060009055600192505b505092915050565b6060816002018054806020026020016040519081016040528092919081815260200182805480156106e057602002820191906000526020600020905b8160009054906101000a900473ffffffffffffffffffffffffffffffffffffffff1673ffffffffffffffffffffffffffffffffffffffff1681526020019060010190808311610696575b50505050509050919050565b60008260000160008373ffffffffffffffffffffffffffffffffffffffff1673ffffffffffffffffffffffffffffffffffffffff16815260200190815260200160002060009054906101000a900460ff16905092915050565b81548183558181111561076c5781836000526020600020918201910161076b9190610771565b5b505050565b61079391905b8082111561078f576000816000905550600101610777565b5090565b905600a165627a7a7230582058adf3962cf04f95dd5070984043063501d3f9a174ad935b1cb6c8dbda7382ae0029",
  "source": "pragma solidity ^0.4.24;\n\nimport \"../utils/IndexedMapping.sol\";\n\ncontract IndexedMappingWrapper {\n\n    using IndexedMapping for IndexedMapping.Data;\n    IndexedMapping.Data internal data;\n\n    function add(address val) external returns (bool) {\n        return data.add(val);\n    }\n\n    function remove(address val) external returns (bool) {\n        return data.remove(val);\n    }\n\n    function exists(address val) external view returns (bool) {\n        return data.exists(val);\n    }\n\n    function getValue(uint index) external view returns (address) {\n        return data.getValue(index);\n    }\n\n    function getValueList() external view returns (address[]) {\n        return data.getValueList();\n    }\n}\n",
  "sourcePath": "/Users/alex/wrapped-navcoin/contracts/mock/IndexedMappingWrapper.sol",
  "compiler": {
    "name": "solc",
    "version": "0.4.24+commit.e67f0147.Emscripten.clang"
  },
  "schemaVersion": "2.0.1",
  "updatedAt": "2021-02-06T15:46:30.634Z"
}