{
  "contractName": "WNAV",
  "abi": [
    {
      "anonymous": false,
      "inputs": [
        {
          "indexed": true,
          "internalType": "address",
          "name": "owner",
          "type": "address"
        },
        {
          "indexed": true,
          "internalType": "address",
          "name": "spender",
          "type": "address"
        },
        {
          "indexed": false,
          "internalType": "uint256",
          "name": "value",
          "type": "uint256"
        }
      ],
      "name": "Approval",
      "type": "event"
    },
    {
      "anonymous": false,
      "inputs": [
        {
          "indexed": true,
          "internalType": "address",
          "name": "a",
          "type": "address"
        },
        {
          "indexed": false,
          "internalType": "uint256",
          "name": "v",
          "type": "uint256"
        },
        {
          "indexed": false,
          "internalType": "string",
          "name": "n",
          "type": "string"
        }
      ],
      "name": "BurnedWithNote",
      "type": "event"
    },
    {
      "anonymous": false,
      "inputs": [
        {
          "indexed": true,
          "internalType": "address",
          "name": "a",
          "type": "address"
        },
        {
          "indexed": false,
          "internalType": "uint256",
          "name": "v",
          "type": "uint256"
        },
        {
          "indexed": false,
          "internalType": "string",
          "name": "n",
          "type": "string"
        },
        {
          "indexed": false,
          "internalType": "uint256",
          "name": "f",
          "type": "uint256"
        }
      ],
      "name": "MintedWithNote",
      "type": "event"
    },
    {
      "anonymous": false,
      "inputs": [
        {
          "indexed": false,
          "internalType": "address",
          "name": "account",
          "type": "address"
        }
      ],
      "name": "Paused",
      "type": "event"
    },
    {
      "anonymous": false,
      "inputs": [
        {
          "indexed": true,
          "internalType": "address",
          "name": "a",
          "type": "address"
        }
      ],
      "name": "Registered",
      "type": "event"
    },
    {
      "anonymous": false,
      "inputs": [
        {
          "indexed": true,
          "internalType": "bytes32",
          "name": "role",
          "type": "bytes32"
        },
        {
          "indexed": true,
          "internalType": "bytes32",
          "name": "previousAdminRole",
          "type": "bytes32"
        },
        {
          "indexed": true,
          "internalType": "bytes32",
          "name": "newAdminRole",
          "type": "bytes32"
        }
      ],
      "name": "RoleAdminChanged",
      "type": "event"
    },
    {
      "anonymous": false,
      "inputs": [
        {
          "indexed": true,
          "internalType": "bytes32",
          "name": "role",
          "type": "bytes32"
        },
        {
          "indexed": true,
          "internalType": "address",
          "name": "account",
          "type": "address"
        },
        {
          "indexed": true,
          "internalType": "address",
          "name": "sender",
          "type": "address"
        }
      ],
      "name": "RoleGranted",
      "type": "event"
    },
    {
      "anonymous": false,
      "inputs": [
        {
          "indexed": true,
          "internalType": "bytes32",
          "name": "role",
          "type": "bytes32"
        },
        {
          "indexed": true,
          "internalType": "address",
          "name": "account",
          "type": "address"
        },
        {
          "indexed": true,
          "internalType": "address",
          "name": "sender",
          "type": "address"
        }
      ],
      "name": "RoleRevoked",
      "type": "event"
    },
    {
      "anonymous": false,
      "inputs": [
        {
          "indexed": true,
          "internalType": "address",
          "name": "from",
          "type": "address"
        },
        {
          "indexed": true,
          "internalType": "address",
          "name": "to",
          "type": "address"
        },
        {
          "indexed": false,
          "internalType": "uint256",
          "name": "value",
          "type": "uint256"
        }
      ],
      "name": "Transfer",
      "type": "event"
    },
    {
      "anonymous": false,
      "inputs": [
        {
          "indexed": false,
          "internalType": "address",
          "name": "account",
          "type": "address"
        }
      ],
      "name": "Unpaused",
      "type": "event"
    },
    {
      "inputs": [],
      "name": "DEFAULT_ADMIN_ROLE",
      "outputs": [
        {
          "internalType": "bytes32",
          "name": "",
          "type": "bytes32"
        }
      ],
      "stateMutability": "view",
      "type": "function",
      "constant": true
    },
    {
      "inputs": [],
      "name": "MINTER_ROLE",
      "outputs": [
        {
          "internalType": "bytes32",
          "name": "",
          "type": "bytes32"
        }
      ],
      "stateMutability": "view",
      "type": "function",
      "constant": true
    },
    {
      "inputs": [],
      "name": "PAUSER_ROLE",
      "outputs": [
        {
          "internalType": "bytes32",
          "name": "",
          "type": "bytes32"
        }
      ],
      "stateMutability": "view",
      "type": "function",
      "constant": true
    },
    {
      "inputs": [
        {
          "internalType": "address",
          "name": "owner",
          "type": "address"
        },
        {
          "internalType": "address",
          "name": "spender",
          "type": "address"
        }
      ],
      "name": "allowance",
      "outputs": [
        {
          "internalType": "uint256",
          "name": "",
          "type": "uint256"
        }
      ],
      "stateMutability": "view",
      "type": "function",
      "constant": true
    },
    {
      "inputs": [
        {
          "internalType": "address",
          "name": "spender",
          "type": "address"
        },
        {
          "internalType": "uint256",
          "name": "amount",
          "type": "uint256"
        }
      ],
      "name": "approve",
      "outputs": [
        {
          "internalType": "bool",
          "name": "",
          "type": "bool"
        }
      ],
      "stateMutability": "nonpayable",
      "type": "function"
    },
    {
      "inputs": [
        {
          "internalType": "address",
          "name": "account",
          "type": "address"
        }
      ],
      "name": "balanceOf",
      "outputs": [
        {
          "internalType": "uint256",
          "name": "",
          "type": "uint256"
        }
      ],
      "stateMutability": "view",
      "type": "function",
      "constant": true
    },
    {
      "inputs": [
        {
          "internalType": "uint256",
          "name": "amount",
          "type": "uint256"
        }
      ],
      "name": "burn",
      "outputs": [],
      "stateMutability": "nonpayable",
      "type": "function"
    },
    {
      "inputs": [
        {
          "internalType": "address",
          "name": "account",
          "type": "address"
        },
        {
          "internalType": "uint256",
          "name": "amount",
          "type": "uint256"
        }
      ],
      "name": "burnFrom",
      "outputs": [],
      "stateMutability": "nonpayable",
      "type": "function"
    },
    {
      "inputs": [],
      "name": "decimals",
      "outputs": [
        {
          "internalType": "uint8",
          "name": "",
          "type": "uint8"
        }
      ],
      "stateMutability": "view",
      "type": "function",
      "constant": true
    },
    {
      "inputs": [
        {
          "internalType": "address",
          "name": "spender",
          "type": "address"
        },
        {
          "internalType": "uint256",
          "name": "subtractedValue",
          "type": "uint256"
        }
      ],
      "name": "decreaseAllowance",
      "outputs": [
        {
          "internalType": "bool",
          "name": "",
          "type": "bool"
        }
      ],
      "stateMutability": "nonpayable",
      "type": "function"
    },
    {
      "inputs": [
        {
          "internalType": "bytes32",
          "name": "role",
          "type": "bytes32"
        }
      ],
      "name": "getRoleAdmin",
      "outputs": [
        {
          "internalType": "bytes32",
          "name": "",
          "type": "bytes32"
        }
      ],
      "stateMutability": "view",
      "type": "function",
      "constant": true
    },
    {
      "inputs": [
        {
          "internalType": "bytes32",
          "name": "role",
          "type": "bytes32"
        },
        {
          "internalType": "uint256",
          "name": "index",
          "type": "uint256"
        }
      ],
      "name": "getRoleMember",
      "outputs": [
        {
          "internalType": "address",
          "name": "",
          "type": "address"
        }
      ],
      "stateMutability": "view",
      "type": "function",
      "constant": true
    },
    {
      "inputs": [
        {
          "internalType": "bytes32",
          "name": "role",
          "type": "bytes32"
        }
      ],
      "name": "getRoleMemberCount",
      "outputs": [
        {
          "internalType": "uint256",
          "name": "",
          "type": "uint256"
        }
      ],
      "stateMutability": "view",
      "type": "function",
      "constant": true
    },
    {
      "inputs": [
        {
          "internalType": "bytes32",
          "name": "role",
          "type": "bytes32"
        },
        {
          "internalType": "address",
          "name": "account",
          "type": "address"
        }
      ],
      "name": "grantRole",
      "outputs": [],
      "stateMutability": "nonpayable",
      "type": "function"
    },
    {
      "inputs": [
        {
          "internalType": "bytes32",
          "name": "role",
          "type": "bytes32"
        },
        {
          "internalType": "address",
          "name": "account",
          "type": "address"
        }
      ],
      "name": "hasRole",
      "outputs": [
        {
          "internalType": "bool",
          "name": "",
          "type": "bool"
        }
      ],
      "stateMutability": "view",
      "type": "function",
      "constant": true
    },
    {
      "inputs": [
        {
          "internalType": "address",
          "name": "spender",
          "type": "address"
        },
        {
          "internalType": "uint256",
          "name": "addedValue",
          "type": "uint256"
        }
      ],
      "name": "increaseAllowance",
      "outputs": [
        {
          "internalType": "bool",
          "name": "",
          "type": "bool"
        }
      ],
      "stateMutability": "nonpayable",
      "type": "function"
    },
    {
      "inputs": [],
      "name": "name",
      "outputs": [
        {
          "internalType": "string",
          "name": "",
          "type": "string"
        }
      ],
      "stateMutability": "view",
      "type": "function",
      "constant": true
    },
    {
      "inputs": [],
      "name": "pause",
      "outputs": [],
      "stateMutability": "nonpayable",
      "type": "function"
    },
    {
      "inputs": [],
      "name": "paused",
      "outputs": [
        {
          "internalType": "bool",
          "name": "",
          "type": "bool"
        }
      ],
      "stateMutability": "view",
      "type": "function",
      "constant": true
    },
    {
      "inputs": [
        {
          "internalType": "bytes32",
          "name": "role",
          "type": "bytes32"
        },
        {
          "internalType": "address",
          "name": "account",
          "type": "address"
        }
      ],
      "name": "renounceRole",
      "outputs": [],
      "stateMutability": "nonpayable",
      "type": "function"
    },
    {
      "inputs": [
        {
          "internalType": "bytes32",
          "name": "role",
          "type": "bytes32"
        },
        {
          "internalType": "address",
          "name": "account",
          "type": "address"
        }
      ],
      "name": "revokeRole",
      "outputs": [],
      "stateMutability": "nonpayable",
      "type": "function"
    },
    {
      "inputs": [],
      "name": "symbol",
      "outputs": [
        {
          "internalType": "string",
          "name": "",
          "type": "string"
        }
      ],
      "stateMutability": "view",
      "type": "function",
      "constant": true
    },
    {
      "inputs": [],
      "name": "totalSupply",
      "outputs": [
        {
          "internalType": "uint256",
          "name": "",
          "type": "uint256"
        }
      ],
      "stateMutability": "view",
      "type": "function",
      "constant": true
    },
    {
      "inputs": [
        {
          "internalType": "address",
          "name": "recipient",
          "type": "address"
        },
        {
          "internalType": "uint256",
          "name": "amount",
          "type": "uint256"
        }
      ],
      "name": "transfer",
      "outputs": [
        {
          "internalType": "bool",
          "name": "",
          "type": "bool"
        }
      ],
      "stateMutability": "nonpayable",
      "type": "function"
    },
    {
      "inputs": [
        {
          "internalType": "address",
          "name": "sender",
          "type": "address"
        },
        {
          "internalType": "address",
          "name": "recipient",
          "type": "address"
        },
        {
          "internalType": "uint256",
          "name": "amount",
          "type": "uint256"
        }
      ],
      "name": "transferFrom",
      "outputs": [
        {
          "internalType": "bool",
          "name": "",
          "type": "bool"
        }
      ],
      "stateMutability": "nonpayable",
      "type": "function"
    },
    {
      "inputs": [],
      "name": "unpause",
      "outputs": [],
      "stateMutability": "nonpayable",
      "type": "function"
    },
    {
      "inputs": [
        {
          "internalType": "string",
          "name": "name",
          "type": "string"
        },
        {
          "internalType": "string",
          "name": "symbol",
          "type": "string"
        }
      ],
      "name": "initialize",
      "outputs": [],
      "stateMutability": "nonpayable",
      "type": "function"
    },
    {
      "inputs": [
        {
          "internalType": "uint256",
          "name": "_value",
          "type": "uint256"
        },
        {
          "internalType": "string",
          "name": "_note",
          "type": "string"
        }
      ],
      "name": "burnWithNote",
      "outputs": [],
      "stateMutability": "nonpayable",
      "type": "function"
    },
    {
      "inputs": [
        {
          "internalType": "address",
          "name": "_to",
          "type": "address"
        },
        {
          "internalType": "uint256",
          "name": "_amount",
          "type": "uint256"
        },
        {
          "internalType": "string",
          "name": "_note",
          "type": "string"
        },
        {
          "internalType": "uint256",
          "name": "_fee",
          "type": "uint256"
        }
      ],
      "name": "mint",
      "outputs": [],
      "stateMutability": "nonpayable",
      "type": "function"
    },
    {
      "inputs": [
        {
          "internalType": "address",
          "name": "to",
          "type": "address"
        },
        {
          "internalType": "uint256",
          "name": "amount",
          "type": "uint256"
        }
      ],
      "name": "mint",
      "outputs": [],
      "stateMutability": "nonpayable",
      "type": "function"
    },
    {
      "inputs": [
        {
          "internalType": "address",
          "name": "_to",
          "type": "address"
        }
      ],
      "name": "setFeeAddress",
      "outputs": [],
      "stateMutability": "nonpayable",
      "type": "function"
    },
    {
      "inputs": [],
      "name": "getFeeAddress",
      "outputs": [
        {
          "internalType": "address",
          "name": "",
          "type": "address"
        }
      ],
      "stateMutability": "view",
      "type": "function",
      "constant": true
    },
    {
      "inputs": [
        {
          "internalType": "uint256",
          "name": "_fee",
          "type": "uint256"
        }
      ],
      "name": "setMinFee",
      "outputs": [],
      "stateMutability": "nonpayable",
      "type": "function"
    },
    {
      "inputs": [],
      "name": "getMinFee",
      "outputs": [
        {
          "internalType": "uint256",
          "name": "",
          "type": "uint256"
        }
      ],
      "stateMutability": "view",
      "type": "function",
      "constant": true
    },
    {
      "inputs": [
        {
          "internalType": "string",
          "name": "_note",
          "type": "string"
        }
      ],
      "name": "existsMint",
      "outputs": [
        {
          "internalType": "bool",
          "name": "",
          "type": "bool"
        }
      ],
      "stateMutability": "view",
      "type": "function",
      "constant": true
    },
    {
      "inputs": [],
      "name": "register",
      "outputs": [],
      "stateMutability": "nonpayable",
      "type": "function"
    },
    {
      "inputs": [
        {
          "internalType": "address",
          "name": "_native",
          "type": "address"
        }
      ],
      "name": "isRegistered",
      "outputs": [
        {
          "internalType": "bool",
          "name": "",
          "type": "bool"
        }
      ],
      "stateMutability": "view",
      "type": "function",
      "constant": true
    }
  ],
  "bytecode": "0x608060405234801561001057600080fd5b50613dfc806100206000396000f3fe608060405234801561001057600080fd5b50600436106102275760003560e01c80635c975abb1161013057806395d89b41116100b8578063ca15c8731161007c578063ca15c87314610d9c578063d539139314610dde578063d547741f14610dfc578063dd62ed3e14610e4a578063e63ab1e914610ec257610227565b806395d89b4114610bd9578063a217fddf14610c5c578063a457c2d714610c7a578063a9059cbb14610cde578063c3c5a54714610d4257610227565b80638456cb59116100ff5780638456cb59146109f45780638705fcd4146109fe5780639010d07c14610a425780639021b7de14610aa457806391d1485414610b7557610227565b80635c975abb146109105780635cf34bcf1461093057806370a082311461094e57806379cc6790146109a657610227565b8063313ce567116101b35780633f4ba83a116101825780633f4ba83a1461070457806340c10f191461070e57806342966c681461075c5780634cd88b761461078a5780634e7ceacb146108dc57610227565b8063313ce5671461060357806331ac99201461062457806336568abe1461065257806339509351146106a057610227565b80631aa3a008116101fa5780631aa3a008146104205780631c9564a01461042a57806323b872dd146104ef578063248a9ca3146105735780632f2ff15d146105b557610227565b806306fdde031461022c57806308a8d7aa146102af578063095ea7b31461039e57806318160ddd14610402575b600080fd5b610234610ee0565b6040518080602001828103825283818151815260200191508051906020019080838360005b83811015610274578082015181840152602081019050610259565b50505050905090810190601f1680156102a15780820380516001836020036101000a031916815260200191505b509250505060405180910390f35b61039c600480360360808110156102c557600080fd5b81019080803573ffffffffffffffffffffffffffffffffffffffff169060200190929190803590602001909291908035906020019064010000000081111561030c57600080fd5b82018360208201111561031e57600080fd5b8035906020019184600183028401116401000000008311171561034057600080fd5b91908080601f016020809104026020016040519081016040528093929190818152602001838380828437600081840152601f19601f82011690508083019250505050505050919291929080359060200190929190505050610f82565b005b6103ea600480360360408110156103b457600080fd5b81019080803573ffffffffffffffffffffffffffffffffffffffff169060200190929190803590602001909291905050506111b9565b60405180821515815260200191505060405180910390f35b61040a6111d7565b6040518082815260200191505060405180910390f35b6104286111e1565b005b6104ed6004803603604081101561044057600080fd5b81019080803590602001909291908035906020019064010000000081111561046757600080fd5b82018360208201111561047957600080fd5b8035906020019184600183028401116401000000008311171561049b57600080fd5b91908080601f016020809104026020016040519081016040528093929190818152602001838380828437600081840152601f19601f820116905080830192505050505050509192919290505050611292565b005b61055b6004803603606081101561050557600080fd5b81019080803573ffffffffffffffffffffffffffffffffffffffff169060200190929190803573ffffffffffffffffffffffffffffffffffffffff16906020019092919080359060200190929190505050611369565b60405180821515815260200191505060405180910390f35b61059f6004803603602081101561058957600080fd5b8101908080359060200190929190505050611442565b6040518082815260200191505060405180910390f35b610601600480360360408110156105cb57600080fd5b8101908080359060200190929190803573ffffffffffffffffffffffffffffffffffffffff169060200190929190505050611462565b005b61060b6114ec565b604051808260ff16815260200191505060405180910390f35b6106506004803603602081101561063a57600080fd5b8101908080359060200190929190505050611503565b005b61069e6004803603604081101561066857600080fd5b8101908080359060200190929190803573ffffffffffffffffffffffffffffffffffffffff169060200190929190505050611594565b005b6106ec600480360360408110156106b657600080fd5b81019080803573ffffffffffffffffffffffffffffffffffffffff1690602001909291908035906020019092919050505061162d565b60405180821515815260200191505060405180910390f35b61070c6116e0565b005b61075a6004803603604081101561072457600080fd5b81019080803573ffffffffffffffffffffffffffffffffffffffff16906020019092919080359060200190929190505050611770565b005b6107886004803603602081101561077257600080fd5b8101908080359060200190929190505050611804565b005b6108da600480360360408110156107a057600080fd5b81019080803590602001906401000000008111156107bd57600080fd5b8201836020820111156107cf57600080fd5b803590602001918460018302840111640100000000831117156107f157600080fd5b91908080601f016020809104026020016040519081016040528093929190818152602001838380828437600081840152601f19601f8201169050808301925050505050505091929192908035906020019064010000000081111561085457600080fd5b82018360208201111561086657600080fd5b8035906020019184600183028401116401000000008311171561088857600080fd5b91908080601f016020809104026020016040519081016040528093929190818152602001838380828437600081840152601f19601f820116905080830192505050505050509192919290505050611818565b005b6108e4611979565b604051808273ffffffffffffffffffffffffffffffffffffffff16815260200191505060405180910390f35b6109186119a4565b60405180821515815260200191505060405180910390f35b6109386119bb565b6040518082815260200191505060405180910390f35b6109906004803603602081101561096457600080fd5b81019080803573ffffffffffffffffffffffffffffffffffffffff1690602001909291905050506119c6565b6040518082815260200191505060405180910390f35b6109f2600480360360408110156109bc57600080fd5b81019080803573ffffffffffffffffffffffffffffffffffffffff16906020019092919080359060200190929190505050611a0f565b005b6109fc611a71565b005b610a4060048036036020811015610a1457600080fd5b81019080803573ffffffffffffffffffffffffffffffffffffffff169060200190929190505050611b01565b005b610a7860048036036040811015610a5857600080fd5b810190808035906020019092919080359060200190929190505050611bcc565b604051808273ffffffffffffffffffffffffffffffffffffffff16815260200191505060405180910390f35b610b5d60048036036020811015610aba57600080fd5b8101908080359060200190640100000000811115610ad757600080fd5b820183602082011115610ae957600080fd5b80359060200191846001830284011164010000000083111715610b0b57600080fd5b91908080601f016020809104026020016040519081016040528093929190818152602001838380828437600081840152601f19601f820116905080830192505050505050509192919290505050611bfe565b60405180821515815260200191505060405180910390f35b610bc160048036036040811015610b8b57600080fd5b8101908080359060200190929190803573ffffffffffffffffffffffffffffffffffffffff169060200190929190505050611c86565b60405180821515815260200191505060405180910390f35b610be1611cb8565b6040518080602001828103825283818151815260200191508051906020019080838360005b83811015610c21578082015181840152602081019050610c06565b50505050905090810190601f168015610c4e5780820380516001836020036101000a031916815260200191505b509250505060405180910390f35b610c64611d5a565b6040518082815260200191505060405180910390f35b610cc660048036036040811015610c9057600080fd5b81019080803573ffffffffffffffffffffffffffffffffffffffff16906020019092919080359060200190929190505050611d61565b60405180821515815260200191505060405180910390f35b610d2a60048036036040811015610cf457600080fd5b81019080803573ffffffffffffffffffffffffffffffffffffffff16906020019092919080359060200190929190505050611e2e565b60405180821515815260200191505060405180910390f35b610d8460048036036020811015610d5857600080fd5b81019080803573ffffffffffffffffffffffffffffffffffffffff169060200190929190505050611e4c565b60405180821515815260200191505060405180910390f35b610dc860048036036020811015610db257600080fd5b8101908080359060200190929190505050611eaa565b6040518082815260200191505060405180910390f35b610de6611ed1565b6040518082815260200191505060405180910390f35b610e4860048036036040811015610e1257600080fd5b8101908080359060200190929190803573ffffffffffffffffffffffffffffffffffffffff169060200190929190505050611ef5565b005b610eac60048036036040811015610e6057600080fd5b81019080803573ffffffffffffffffffffffffffffffffffffffff169060200190929190803573ffffffffffffffffffffffffffffffffffffffff169060200190929190505050611f7f565b6040518082815260200191505060405180910390f35b610eca612006565b6040518082815260200191505060405180910390f35b606060688054600181600116156101000203166002900480601f016020809104026020016040519081016040528092919081815260200182805460018160011615610100020316600290048015610f785780601f10610f4d57610100808354040283529160200191610f78565b820191906000526020600020905b815481529060010190602001808311610f5b57829003601f168201915b5050505050905090565b610fb37f9f2df0fed2c77648de5860a4cc508cd0818c85b8b8a1ab4ceeef8d981c8956a6610fae61202a565b611c86565b611008576040517f08c379a0000000000000000000000000000000000000000000000000000000008152600401808060200182810382526024815260200180613c2a6024913960400191505060405180910390fd5b61101182611bfe565b1561101b57600080fd5b61102484611e4c565b61102d57600080fd5b6110378484612032565b6000811461106d5761106c61016060009054906101000a900473ffffffffffffffffffffffffffffffffffffffff1682612032565b5b6001610162836040518082805190602001908083835b602083106110a65780518252602082019150602081019050602083039250611083565b6001836020036101000a038019825116818451168082178552505050505050905001915050908152602001604051809103902060006101000a81548160ff0219169083151502179055508373ffffffffffffffffffffffffffffffffffffffff167f907198012cec36a0185898abf3b7586cce7080beaf0ca5dfb85adcbf0508be718484846040518084815260200180602001838152602001828103825284818151815260200191508051906020019080838360005b8381101561117757808201518184015260208101905061115c565b50505050905090810190601f1680156111a45780820380516001836020036101000a031916815260200191505b5094505050505060405180910390a250505050565b60006111cd6111c661202a565b84846121fb565b6001905092915050565b6000606754905090565b6111ea33611e4c565b156111f457600080fd5b600161016360003373ffffffffffffffffffffffffffffffffffffffff1673ffffffffffffffffffffffffffffffffffffffff16815260200190815260200160002060006101000a81548160ff0219169083151502179055503373ffffffffffffffffffffffffffffffffffffffff167f2d3734a8e47ac8316e500ac231c90a6e1848ca2285f40d07eaa52005e4b3a0e960405160405180910390a2565b6101615482116112a157600080fd5b6112aa82611804565b3373ffffffffffffffffffffffffffffffffffffffff167fb127fdad471edaf7e0c498b52f590e889813ed697831d285e7af6941f5ee408483836040518083815260200180602001828103825283818151815260200191508051906020019080838360005b8381101561132a57808201518184015260208101905061130f565b50505050905090810190601f1680156113575780820380516001836020036101000a031916815260200191505b50935050505060405180910390a25050565b60006113768484846123f2565b6114378461138261202a565b61143285604051806060016040528060288152602001613c0260289139606660008b73ffffffffffffffffffffffffffffffffffffffff1673ffffffffffffffffffffffffffffffffffffffff16815260200190815260200160002060006113e861202a565b73ffffffffffffffffffffffffffffffffffffffff1673ffffffffffffffffffffffffffffffffffffffff168152602001908152602001600020546126b79092919063ffffffff16565b6121fb565b600190509392505050565b600060336000838152602001908152602001600020600201549050919050565b611489603360008481526020019081526020016000206002015461148461202a565b611c86565b6114de576040517f08c379a000000000000000000000000000000000000000000000000000000000815260040180806020018281038252602f815260200180613ad2602f913960400191505060405180910390fd5b6114e88282612771565b5050565b6000606a60009054906101000a900460ff16905090565b6115176000801b61151261202a565b611c86565b611589576040517f08c379a000000000000000000000000000000000000000000000000000000000815260040180806020018281038252601b8152602001807f4552524f523a206d75737420686176652061646d696e20726f6c65000000000081525060200191505060405180910390fd5b806101618190555050565b61159c61202a565b73ffffffffffffffffffffffffffffffffffffffff168173ffffffffffffffffffffffffffffffffffffffff161461161f576040517f08c379a000000000000000000000000000000000000000000000000000000000815260040180806020018281038252602f815260200180613d6e602f913960400191505060405180910390fd5b6116298282612805565b5050565b60006116d661163a61202a565b846116d1856066600061164b61202a565b73ffffffffffffffffffffffffffffffffffffffff1673ffffffffffffffffffffffffffffffffffffffff16815260200190815260200160002060008973ffffffffffffffffffffffffffffffffffffffff1673ffffffffffffffffffffffffffffffffffffffff1681526020019081526020016000205461289990919063ffffffff16565b6121fb565b6001905092915050565b6117117f65d7a28e3265b37a6474929f336521b332c1681b933f6cb9f3376673440d862a61170c61202a565b611c86565b611766576040517f08c379a0000000000000000000000000000000000000000000000000000000008152600401808060200182810382526039815260200180613b236039913960400191505060405180910390fd5b61176e612921565b565b6117a17f9f2df0fed2c77648de5860a4cc508cd0818c85b8b8a1ab4ceeef8d981c8956a661179c61202a565b611c86565b6117f6576040517f08c379a0000000000000000000000000000000000000000000000000000000008152600401808060200182810382526036815260200180613c4e6036913960400191505060405180910390fd5b6118008282612032565b5050565b61181561180f61202a565b82612a0c565b50565b600060019054906101000a900460ff16806118375750611836612bd2565b5b8061184d575060008054906101000a900460ff16155b6118a2576040517f08c379a000000000000000000000000000000000000000000000000000000000815260040180806020018281038252602e815260200180613bd4602e913960400191505060405180910390fd5b60008060019054906101000a900460ff1615905080156118f2576001600060016101000a81548160ff02191690831515021790555060016000806101000a81548160ff0219169083151502179055505b6118fc8383612be3565b3361016060006101000a81548173ffffffffffffffffffffffffffffffffffffffff021916908373ffffffffffffffffffffffffffffffffffffffff16021790555062061a80610161819055506119536008612d1f565b80156119745760008060016101000a81548160ff0219169083151502179055505b505050565b600061016060009054906101000a900473ffffffffffffffffffffffffffffffffffffffff16905090565b600060c960009054906101000a900460ff16905090565b600061016154905090565b6000606560008373ffffffffffffffffffffffffffffffffffffffff1673ffffffffffffffffffffffffffffffffffffffff168152602001908152602001600020549050919050565b6000611a4e82604051806060016040528060248152602001613c8460249139611a3f86611a3a61202a565b611f7f565b6126b79092919063ffffffff16565b9050611a6283611a5c61202a565b836121fb565b611a6c8383612a0c565b505050565b611aa27f65d7a28e3265b37a6474929f336521b332c1681b933f6cb9f3376673440d862a611a9d61202a565b611c86565b611af7576040517f08c379a0000000000000000000000000000000000000000000000000000000008152600401808060200182810382526037815260200180613d126037913960400191505060405180910390fd5b611aff612d3d565b565b611b156000801b611b1061202a565b611c86565b611b87576040517f08c379a000000000000000000000000000000000000000000000000000000000815260040180806020018281038252601b8152602001807f4552524f523a206d75737420686176652061646d696e20726f6c65000000000081525060200191505060405180910390fd5b8061016060006101000a81548173ffffffffffffffffffffffffffffffffffffffff021916908373ffffffffffffffffffffffffffffffffffffffff16021790555050565b6000611bf68260336000868152602001908152602001600020600001612e2990919063ffffffff16565b905092915050565b600060011515610162836040518082805190602001908083835b60208310611c3b5780518252602082019150602081019050602083039250611c18565b6001836020036101000a038019825116818451168082178552505050505050905001915050908152602001604051809103902060009054906101000a900460ff161515149050919050565b6000611cb08260336000868152602001908152602001600020600001612e4390919063ffffffff16565b905092915050565b606060698054600181600116156101000203166002900480601f016020809104026020016040519081016040528092919081815260200182805460018160011615610100020316600290048015611d505780601f10611d2557610100808354040283529160200191611d50565b820191906000526020600020905b815481529060010190602001808311611d3357829003601f168201915b5050505050905090565b6000801b81565b6000611e24611d6e61202a565b84611e1f85604051806060016040528060258152602001613d496025913960666000611d9861202a565b73ffffffffffffffffffffffffffffffffffffffff1673ffffffffffffffffffffffffffffffffffffffff16815260200190815260200160002060008a73ffffffffffffffffffffffffffffffffffffffff1673ffffffffffffffffffffffffffffffffffffffff168152602001908152602001600020546126b79092919063ffffffff16565b6121fb565b6001905092915050565b6000611e42611e3b61202a565b84846123f2565b6001905092915050565b60006001151561016360008473ffffffffffffffffffffffffffffffffffffffff1673ffffffffffffffffffffffffffffffffffffffff16815260200190815260200160002060009054906101000a900460ff161515149050919050565b6000611eca60336000848152602001908152602001600020600001612e73565b9050919050565b7f9f2df0fed2c77648de5860a4cc508cd0818c85b8b8a1ab4ceeef8d981c8956a681565b611f1c6033600084815260200190815260200160002060020154611f1761202a565b611c86565b611f71576040517f08c379a0000000000000000000000000000000000000000000000000000000008152600401808060200182810382526030815260200180613ba46030913960400191505060405180910390fd5b611f7b8282612805565b5050565b6000606660008473ffffffffffffffffffffffffffffffffffffffff1673ffffffffffffffffffffffffffffffffffffffff16815260200190815260200160002060008373ffffffffffffffffffffffffffffffffffffffff1673ffffffffffffffffffffffffffffffffffffffff16815260200190815260200160002054905092915050565b7f65d7a28e3265b37a6474929f336521b332c1681b933f6cb9f3376673440d862a81565b600033905090565b600073ffffffffffffffffffffffffffffffffffffffff168273ffffffffffffffffffffffffffffffffffffffff1614156120d5576040517f08c379a000000000000000000000000000000000000000000000000000000000815260040180806020018281038252601f8152602001807f45524332303a206d696e7420746f20746865207a65726f20616464726573730081525060200191505060405180910390fd5b6120e160008383612e88565b6120f68160675461289990919063ffffffff16565b60678190555061214e81606560008573ffffffffffffffffffffffffffffffffffffffff1673ffffffffffffffffffffffffffffffffffffffff1681526020019081526020016000205461289990919063ffffffff16565b606560008473ffffffffffffffffffffffffffffffffffffffff1673ffffffffffffffffffffffffffffffffffffffff168152602001908152602001600020819055508173ffffffffffffffffffffffffffffffffffffffff16600073ffffffffffffffffffffffffffffffffffffffff167fddf252ad1be2c89b69c2b068fc378daa952ba7f163c4a11628f55a4df523b3ef836040518082815260200191505060405180910390a35050565b600073ffffffffffffffffffffffffffffffffffffffff168373ffffffffffffffffffffffffffffffffffffffff161415612281576040517f08c379a0000000000000000000000000000000000000000000000000000000008152600401808060200182810382526024815260200180613cee6024913960400191505060405180910390fd5b600073ffffffffffffffffffffffffffffffffffffffff168273ffffffffffffffffffffffffffffffffffffffff161415612307576040517f08c379a0000000000000000000000000000000000000000000000000000000008152600401808060200182810382526022815260200180613b5c6022913960400191505060405180910390fd5b80606660008573ffffffffffffffffffffffffffffffffffffffff1673ffffffffffffffffffffffffffffffffffffffff16815260200190815260200160002060008473ffffffffffffffffffffffffffffffffffffffff1673ffffffffffffffffffffffffffffffffffffffff168152602001908152602001600020819055508173ffffffffffffffffffffffffffffffffffffffff168373ffffffffffffffffffffffffffffffffffffffff167f8c5be1e5ebec7d5bd14f71427d1e84f3dd0314c0f7b2291e5b200ac8c7c3b925836040518082815260200191505060405180910390a3505050565b600073ffffffffffffffffffffffffffffffffffffffff168373ffffffffffffffffffffffffffffffffffffffff161415612478576040517f08c379a0000000000000000000000000000000000000000000000000000000008152600401808060200182810382526025815260200180613cc96025913960400191505060405180910390fd5b600073ffffffffffffffffffffffffffffffffffffffff168273ffffffffffffffffffffffffffffffffffffffff1614156124fe576040517f08c379a0000000000000000000000000000000000000000000000000000000008152600401808060200182810382526023815260200180613aaf6023913960400191505060405180910390fd5b612509838383612e88565b61257581604051806060016040528060268152602001613b7e60269139606560008773ffffffffffffffffffffffffffffffffffffffff1673ffffffffffffffffffffffffffffffffffffffff168152602001908152602001600020546126b79092919063ffffffff16565b606560008573ffffffffffffffffffffffffffffffffffffffff1673ffffffffffffffffffffffffffffffffffffffff1681526020019081526020016000208190555061260a81606560008573ffffffffffffffffffffffffffffffffffffffff1673ffffffffffffffffffffffffffffffffffffffff1681526020019081526020016000205461289990919063ffffffff16565b606560008473ffffffffffffffffffffffffffffffffffffffff1673ffffffffffffffffffffffffffffffffffffffff168152602001908152602001600020819055508173ffffffffffffffffffffffffffffffffffffffff168373ffffffffffffffffffffffffffffffffffffffff167fddf252ad1be2c89b69c2b068fc378daa952ba7f163c4a11628f55a4df523b3ef836040518082815260200191505060405180910390a3505050565b6000838311158290612764576040517f08c379a00000000000000000000000000000000000000000000000000000000081526004018080602001828103825283818151815260200191508051906020019080838360005b8381101561272957808201518184015260208101905061270e565b50505050905090810190601f1680156127565780820380516001836020036101000a031916815260200191505b509250505060405180910390fd5b5082840390509392505050565b6127998160336000858152602001908152602001600020600001612e9890919063ffffffff16565b15612801576127a661202a565b73ffffffffffffffffffffffffffffffffffffffff168173ffffffffffffffffffffffffffffffffffffffff16837f2f8788117e7eff1d82e926ec794901d17c78024a50270940304540a733656f0d60405160405180910390a45b5050565b61282d8160336000858152602001908152602001600020600001612ec890919063ffffffff16565b156128955761283a61202a565b73ffffffffffffffffffffffffffffffffffffffff168173ffffffffffffffffffffffffffffffffffffffff16837ff6391f5c32d9c69d2a47ea670b442974b53935d1edc7fd64eb21e047a839171b60405160405180910390a45b5050565b600080828401905083811015612917576040517f08c379a000000000000000000000000000000000000000000000000000000000815260040180806020018281038252601b8152602001807f536166654d6174683a206164646974696f6e206f766572666c6f77000000000081525060200191505060405180910390fd5b8091505092915050565b6129296119a4565b61299b576040517f08c379a00000000000000000000000000000000000000000000000000000000081526004018080602001828103825260148152602001807f5061757361626c653a206e6f742070617573656400000000000000000000000081525060200191505060405180910390fd5b600060c960006101000a81548160ff0219169083151502179055507f5db9ee0a495bf2e6ff9c91a7834c1ba4fdd244a5e8aa4e537bd38aeae4b073aa6129df61202a565b604051808273ffffffffffffffffffffffffffffffffffffffff16815260200191505060405180910390a1565b600073ffffffffffffffffffffffffffffffffffffffff168273ffffffffffffffffffffffffffffffffffffffff161415612a92576040517f08c379a0000000000000000000000000000000000000000000000000000000008152600401808060200182810382526021815260200180613ca86021913960400191505060405180910390fd5b612a9e82600083612e88565b612b0a81604051806060016040528060228152602001613b0160229139606560008673ffffffffffffffffffffffffffffffffffffffff1673ffffffffffffffffffffffffffffffffffffffff168152602001908152602001600020546126b79092919063ffffffff16565b606560008473ffffffffffffffffffffffffffffffffffffffff1673ffffffffffffffffffffffffffffffffffffffff16815260200190815260200160002081905550612b6281606754612ef890919063ffffffff16565b606781905550600073ffffffffffffffffffffffffffffffffffffffff168273ffffffffffffffffffffffffffffffffffffffff167fddf252ad1be2c89b69c2b068fc378daa952ba7f163c4a11628f55a4df523b3ef836040518082815260200191505060405180910390a35050565b6000612bdd30612f7b565b15905090565b600060019054906101000a900460ff1680612c025750612c01612bd2565b5b80612c18575060008054906101000a900460ff16155b612c6d576040517f08c379a000000000000000000000000000000000000000000000000000000000815260040180806020018281038252602e815260200180613bd4602e913960400191505060405180910390fd5b60008060019054906101000a900460ff161590508015612cbd576001600060016101000a81548160ff02191690831515021790555060016000806101000a81548160ff0219169083151502179055505b612cc5612f8e565b612ccd61308c565b612cd7838361318a565b612cdf6132d4565b612ce76133d2565b612cef6134eb565b612cf983836135e9565b8015612d1a5760008060016101000a81548160ff0219169083151502179055505b505050565b80606a60006101000a81548160ff021916908360ff16021790555050565b612d456119a4565b15612db8576040517f08c379a00000000000000000000000000000000000000000000000000000000081526004018080602001828103825260108152602001807f5061757361626c653a207061757365640000000000000000000000000000000081525060200191505060405180910390fd5b600160c960006101000a81548160ff0219169083151502179055507f62e78cea01bee320cd4e420270b5ea74000d11b0c9f74754ebdbfc544b05a258612dfc61202a565b604051808273ffffffffffffffffffffffffffffffffffffffff16815260200191505060405180910390a1565b6000612e38836000018361375f565b60001c905092915050565b6000612e6b836000018373ffffffffffffffffffffffffffffffffffffffff1660001b6137e2565b905092915050565b6000612e8182600001613805565b9050919050565b612e93838383613816565b505050565b6000612ec0836000018373ffffffffffffffffffffffffffffffffffffffff1660001b613884565b905092915050565b6000612ef0836000018373ffffffffffffffffffffffffffffffffffffffff1660001b6138f4565b905092915050565b600082821115612f70576040517f08c379a000000000000000000000000000000000000000000000000000000000815260040180806020018281038252601e8152602001807f536166654d6174683a207375627472616374696f6e206f766572666c6f77000081525060200191505060405180910390fd5b818303905092915050565b600080823b905060008111915050919050565b600060019054906101000a900460ff1680612fad5750612fac612bd2565b5b80612fc3575060008054906101000a900460ff16155b613018576040517f08c379a000000000000000000000000000000000000000000000000000000000815260040180806020018281038252602e815260200180613bd4602e913960400191505060405180910390fd5b60008060019054906101000a900460ff161590508015613068576001600060016101000a81548160ff02191690831515021790555060016000806101000a81548160ff0219169083151502179055505b80156130895760008060016101000a81548160ff0219169083151502179055505b50565b600060019054906101000a900460ff16806130ab57506130aa612bd2565b5b806130c1575060008054906101000a900460ff16155b613116576040517f08c379a000000000000000000000000000000000000000000000000000000000815260040180806020018281038252602e815260200180613bd4602e913960400191505060405180910390fd5b60008060019054906101000a900460ff161590508015613166576001600060016101000a81548160ff02191690831515021790555060016000806101000a81548160ff0219169083151502179055505b80156131875760008060016101000a81548160ff0219169083151502179055505b50565b600060019054906101000a900460ff16806131a957506131a8612bd2565b5b806131bf575060008054906101000a900460ff16155b613214576040517f08c379a000000000000000000000000000000000000000000000000000000000815260040180806020018281038252602e815260200180613bd4602e913960400191505060405180910390fd5b60008060019054906101000a900460ff161590508015613264576001600060016101000a81548160ff02191690831515021790555060016000806101000a81548160ff0219169083151502179055505b826068908051906020019061327a9291906139ef565b5081606990805190602001906132919291906139ef565b506012606a60006101000a81548160ff021916908360ff16021790555080156132cf5760008060016101000a81548160ff0219169083151502179055505b505050565b600060019054906101000a900460ff16806132f357506132f2612bd2565b5b80613309575060008054906101000a900460ff16155b61335e576040517f08c379a000000000000000000000000000000000000000000000000000000000815260040180806020018281038252602e815260200180613bd4602e913960400191505060405180910390fd5b60008060019054906101000a900460ff1615905080156133ae576001600060016101000a81548160ff02191690831515021790555060016000806101000a81548160ff0219169083151502179055505b80156133cf5760008060016101000a81548160ff0219169083151502179055505b50565b600060019054906101000a900460ff16806133f157506133f0612bd2565b5b80613407575060008054906101000a900460ff16155b61345c576040517f08c379a000000000000000000000000000000000000000000000000000000000815260040180806020018281038252602e815260200180613bd4602e913960400191505060405180910390fd5b60008060019054906101000a900460ff1615905080156134ac576001600060016101000a81548160ff02191690831515021790555060016000806101000a81548160ff0219169083151502179055505b600060c960006101000a81548160ff02191690831515021790555080156134e85760008060016101000a81548160ff0219169083151502179055505b50565b600060019054906101000a900460ff168061350a5750613509612bd2565b5b80613520575060008054906101000a900460ff16155b613575576040517f08c379a000000000000000000000000000000000000000000000000000000000815260040180806020018281038252602e815260200180613bd4602e913960400191505060405180910390fd5b60008060019054906101000a900460ff1615905080156135c5576001600060016101000a81548160ff02191690831515021790555060016000806101000a81548160ff0219169083151502179055505b80156135e65760008060016101000a81548160ff0219169083151502179055505b50565b600060019054906101000a900460ff16806136085750613607612bd2565b5b8061361e575060008054906101000a900460ff16155b613673576040517f08c379a000000000000000000000000000000000000000000000000000000000815260040180806020018281038252602e815260200180613bd4602e913960400191505060405180910390fd5b60008060019054906101000a900460ff1615905080156136c3576001600060016101000a81548160ff02191690831515021790555060016000806101000a81548160ff0219169083151502179055505b6136d76000801b6136d261202a565b6139dc565b6137087f9f2df0fed2c77648de5860a4cc508cd0818c85b8b8a1ab4ceeef8d981c8956a661370361202a565b6139dc565b6137397f65d7a28e3265b37a6474929f336521b332c1681b933f6cb9f3376673440d862a61373461202a565b6139dc565b801561375a5760008060016101000a81548160ff0219169083151502179055505b505050565b6000818360000180549050116137c0576040517f08c379a0000000000000000000000000000000000000000000000000000000008152600401808060200182810382526022815260200180613a8d6022913960400191505060405180910390fd5b8260000182815481106137cf57fe5b9060005260206000200154905092915050565b600080836001016000848152602001908152602001600020541415905092915050565b600081600001805490509050919050565b6138218383836139ea565b6138296119a4565b1561387f576040517f08c379a000000000000000000000000000000000000000000000000000000000815260040180806020018281038252602a815260200180613d9d602a913960400191505060405180910390fd5b505050565b600061389083836137e2565b6138e95782600001829080600181540180825580915050600190039060005260206000200160009091909190915055826000018054905083600101600084815260200190815260200160002081905550600190506138ee565b600090505b92915050565b600080836001016000848152602001908152602001600020549050600081146139d0576000600182039050600060018660000180549050039050600086600001828154811061393f57fe5b906000526020600020015490508087600001848154811061395c57fe5b906000526020600020018190555060018301876001016000838152602001908152602001600020819055508660000180548061399457fe5b600190038181906000526020600020016000905590558660010160008781526020019081526020016000206000905560019450505050506139d6565b60009150505b92915050565b6139e68282612771565b5050565b505050565b828054600181600116156101000203166002900490600052602060002090601f016020900481019282601f10613a3057805160ff1916838001178555613a5e565b82800160010185558215613a5e579182015b82811115613a5d578251825591602001919060010190613a42565b5b509050613a6b9190613a6f565b5090565b5b80821115613a88576000816000905550600101613a70565b509056fe456e756d657261626c655365743a20696e646578206f7574206f6620626f756e647345524332303a207472616e7366657220746f20746865207a65726f2061646472657373416363657373436f6e74726f6c3a2073656e646572206d75737420626520616e2061646d696e20746f206772616e7445524332303a206275726e20616d6f756e7420657863656564732062616c616e636545524332305072657365744d696e7465725061757365723a206d75737420686176652070617573657220726f6c6520746f20756e706175736545524332303a20617070726f766520746f20746865207a65726f206164647265737345524332303a207472616e7366657220616d6f756e7420657863656564732062616c616e6365416363657373436f6e74726f6c3a2073656e646572206d75737420626520616e2061646d696e20746f207265766f6b65496e697469616c697a61626c653a20636f6e747261637420697320616c726561647920696e697469616c697a656445524332303a207472616e7366657220616d6f756e74206578636565647320616c6c6f77616e63654552524f523a206d7573742068617665206d696e74657220726f6c6520746f206d696e7445524332305072657365744d696e7465725061757365723a206d7573742068617665206d696e74657220726f6c6520746f206d696e7445524332303a206275726e20616d6f756e74206578636565647320616c6c6f77616e636545524332303a206275726e2066726f6d20746865207a65726f206164647265737345524332303a207472616e736665722066726f6d20746865207a65726f206164647265737345524332303a20617070726f76652066726f6d20746865207a65726f206164647265737345524332305072657365744d696e7465725061757365723a206d75737420686176652070617573657220726f6c6520746f20706175736545524332303a2064656372656173656420616c6c6f77616e63652062656c6f77207a65726f416363657373436f6e74726f6c3a2063616e206f6e6c792072656e6f756e636520726f6c657320666f722073656c6645524332305061757361626c653a20746f6b656e207472616e73666572207768696c6520706175736564a2646970667358221220cb1f1a0baa4711b434acbc31364230e540b65863c8abacef332ebfa18768647e64736f6c634300060c0033",
  "immutableReferences": {},
  "source": "pragma solidity ^0.6.0;\n\nimport \"@openzeppelin/contracts-upgradeable/presets/ERC20PresetMinterPauserUpgradeable.sol\";\n\ncontract WNAV is ERC20PresetMinterPauserUpgradeable {\n\n    address private _owner;\n    address private _feeAddress;\n    uint256 private _withdrawalFee;\n\n    function initialize(string memory name, string memory symbol)\n        public\n        initializer\n        override\n    {\n        __ERC20PresetMinterPauser_init(name, symbol);\n\n        _feeAddress = msg.sender;\n        _withdrawalFee = 400000;\n        _setupDecimals(8);\n    }\n\n    event BurnedWithNote(address indexed a, uint256 v, string n);\n\n    function burnWithNote(uint256 _value, string memory _note) public {\n        require(_value > _withdrawalFee);\n        super.burn(_value);\n        emit BurnedWithNote(msg.sender, _value, _note);\n    }\n\n    mapping (string => bool) mints;\n\n    event MintedWithNote(address indexed a, uint256 v, string n, uint256 f);\n\n    function mint(address _to, uint256 _amount, string memory _note, uint256 _fee) public {\n        require(hasRole(MINTER_ROLE, _msgSender()), \"ERROR: must have minter role to mint\");\n        require(!existsMint(_note));\n        require(isRegistered(_to));\n        super._mint(_to, _amount);\n        if (_fee != 0x0)\n        {\n          super._mint(_feeAddress, _fee);\n        }\n        mints[_note] = true;\n        emit MintedWithNote(_to, _amount, _note, _fee);\n    }\n\n    function setFeeAddress(address _to) public {\n        require(hasRole(DEFAULT_ADMIN_ROLE, _msgSender()), \"ERROR: must have admin role\");\n        _feeAddress = _to;\n    }\n\n    function getFeeAddress() public view returns (address) {\n        return _feeAddress;\n    }\n\n    function setMinFee(uint256 _fee) public {\n        require(hasRole(DEFAULT_ADMIN_ROLE, _msgSender()), \"ERROR: must have admin role\");\n        _withdrawalFee = _fee;\n    }\n\n    function getMinFee() public view returns (uint256) {\n        return _withdrawalFee;\n    }\n\n    function existsMint(string memory _note) public view returns (bool) {\n        return mints[_note] == true;\n    }\n\n    mapping (address => bool) navAddresses;\n\n    event Registered(address indexed a);\n\n    function register() public {\n        require(!isRegistered(msg.sender));\n        navAddresses[msg.sender] = true;\n        emit Registered(msg.sender);\n    }\n\n    function isRegistered(address _native) public view returns (bool) {\n        return navAddresses[_native] == true;\n    }\n}\n\n",
  "sourcePath": "/root/wrapped-navcoin/contracts/token/WNAV.sol",
  "compiler": {
    "name": "solc",
    "version": "0.6.12+commit.27d51765.Emscripten.clang"
  },
  "schemaVersion": "3.3.3",
  "updatedAt": "2021-03-30T19:22:06.969Z",
  "networkType": "ethereum",
  "devdoc": {
    "kind": "dev",
    "methods": {
      "allowance(address,address)": {
        "details": "See {IERC20-allowance}."
      },
      "approve(address,uint256)": {
        "details": "See {IERC20-approve}. Requirements: - `spender` cannot be the zero address."
      },
      "balanceOf(address)": {
        "details": "See {IERC20-balanceOf}."
      },
      "burn(uint256)": {
        "details": "Destroys `amount` tokens from the caller. See {ERC20-_burn}."
      },
      "burnFrom(address,uint256)": {
        "details": "Destroys `amount` tokens from `account`, deducting from the caller's allowance. See {ERC20-_burn} and {ERC20-allowance}. Requirements: - the caller must have allowance for ``accounts``'s tokens of at least `amount`."
      },
      "decimals()": {
        "details": "Returns the number of decimals used to get its user representation. For example, if `decimals` equals `2`, a balance of `505` tokens should be displayed to a user as `5,05` (`505 / 10 ** 2`). Tokens usually opt for a value of 18, imitating the relationship between Ether and Wei. This is the value {ERC20} uses, unless {_setupDecimals} is called. NOTE: This information is only used for _display_ purposes: it in no way affects any of the arithmetic of the contract, including {IERC20-balanceOf} and {IERC20-transfer}."
      },
      "decreaseAllowance(address,uint256)": {
        "details": "Atomically decreases the allowance granted to `spender` by the caller. This is an alternative to {approve} that can be used as a mitigation for problems described in {IERC20-approve}. Emits an {Approval} event indicating the updated allowance. Requirements: - `spender` cannot be the zero address. - `spender` must have allowance for the caller of at least `subtractedValue`."
      },
      "getRoleAdmin(bytes32)": {
        "details": "Returns the admin role that controls `role`. See {grantRole} and {revokeRole}. To change a role's admin, use {_setRoleAdmin}."
      },
      "getRoleMember(bytes32,uint256)": {
        "details": "Returns one of the accounts that have `role`. `index` must be a value between 0 and {getRoleMemberCount}, non-inclusive. Role bearers are not sorted in any particular way, and their ordering may change at any point. WARNING: When using {getRoleMember} and {getRoleMemberCount}, make sure you perform all queries on the same block. See the following https://forum.openzeppelin.com/t/iterating-over-elements-on-enumerableset-in-openzeppelin-contracts/2296[forum post] for more information."
      },
      "getRoleMemberCount(bytes32)": {
        "details": "Returns the number of accounts that have `role`. Can be used together with {getRoleMember} to enumerate all bearers of a role."
      },
      "grantRole(bytes32,address)": {
        "details": "Grants `role` to `account`. If `account` had not been already granted `role`, emits a {RoleGranted} event. Requirements: - the caller must have ``role``'s admin role."
      },
      "hasRole(bytes32,address)": {
        "details": "Returns `true` if `account` has been granted `role`."
      },
      "increaseAllowance(address,uint256)": {
        "details": "Atomically increases the allowance granted to `spender` by the caller. This is an alternative to {approve} that can be used as a mitigation for problems described in {IERC20-approve}. Emits an {Approval} event indicating the updated allowance. Requirements: - `spender` cannot be the zero address."
      },
      "mint(address,uint256)": {
        "details": "Creates `amount` new tokens for `to`. See {ERC20-_mint}. Requirements: - the caller must have the `MINTER_ROLE`."
      },
      "name()": {
        "details": "Returns the name of the token."
      },
      "pause()": {
        "details": "Pauses all token transfers. See {ERC20Pausable} and {Pausable-_pause}. Requirements: - the caller must have the `PAUSER_ROLE`."
      },
      "paused()": {
        "details": "Returns true if the contract is paused, and false otherwise."
      },
      "renounceRole(bytes32,address)": {
        "details": "Revokes `role` from the calling account. Roles are often managed via {grantRole} and {revokeRole}: this function's purpose is to provide a mechanism for accounts to lose their privileges if they are compromised (such as when a trusted device is misplaced). If the calling account had been granted `role`, emits a {RoleRevoked} event. Requirements: - the caller must be `account`."
      },
      "revokeRole(bytes32,address)": {
        "details": "Revokes `role` from `account`. If `account` had been granted `role`, emits a {RoleRevoked} event. Requirements: - the caller must have ``role``'s admin role."
      },
      "symbol()": {
        "details": "Returns the symbol of the token, usually a shorter version of the name."
      },
      "totalSupply()": {
        "details": "See {IERC20-totalSupply}."
      },
      "transfer(address,uint256)": {
        "details": "See {IERC20-transfer}. Requirements: - `recipient` cannot be the zero address. - the caller must have a balance of at least `amount`."
      },
      "transferFrom(address,address,uint256)": {
        "details": "See {IERC20-transferFrom}. Emits an {Approval} event indicating the updated allowance. This is not required by the EIP. See the note at the beginning of {ERC20}. Requirements: - `sender` and `recipient` cannot be the zero address. - `sender` must have a balance of at least `amount`. - the caller must have allowance for ``sender``'s tokens of at least `amount`."
      },
      "unpause()": {
        "details": "Unpauses all token transfers. See {ERC20Pausable} and {Pausable-_unpause}. Requirements: - the caller must have the `PAUSER_ROLE`."
      }
    },
    "version": 1
  },
  "userdoc": {
    "kind": "user",
    "methods": {},
    "version": 1
  }
}